:020000040000fa
:080000000001040000000000f3
:020000040000fa
:0400080008040000e8
:020000040000fa
:04000c0008040000e4
:020000040000fa
:0400100008040000e0
:020000040000fa
:0400140008040000dc
:020000040000fa
:0400180008040000d8
:020000040000fa
:04001c0008040000d4
:020000040000fa
:0400200008040000d0
:020000040000fa
:0400240008040000cc
:020000040000fa
:0400280008040000c8
:020000040000fa
:04002c0008040000c4
:020000040000fa
:0400300008040000c0
:020000040000fa
:040034002a0300009b
:020000040000fa
:0400380008040000b8
:020000040000fa
:04003c0008040000b4
:020000040000fa
:0400400008040000b0
:020000040000fa
:040044000e030000a7
:020000040000fa
:0400480008040000a8
:020000040000fa
:04004c0008040000a4
:020000040000fa
:0400500008040000a0
:020000040000fa
:040054007e03000027
:020000040000fa
:040058000804000098
:020000040000fa
:04005c000804000094
:020000040000fa
:040060000804000090
:020000040000fa
:040064002402000072
:020000040000fa
:040068000804000088
:020000040000fa
:04006c000804000084
:020000040000fa
:040070000804000080
:020000040000fa
:04007400080400007c
:020000040000fa
:040078000804000078
:020000040000fa
:04007c000804000074
:020000040000fa
:040080000804000070
:020000040000fa
:04008400080400006c
:020000040000fa
:04008800fc01000077
:020000040000fa
:04008c00c8010000a7
:020000040000fa
:040090000804000060
:020000040000fa
:04009400080400005c
:020000040000fa
:040098000804000058
:020000040000fa
:04009c000804000054
:020000040000fa
:0400a0000804000050
:020000040000fa
:0400a400080400004c
:020000040000fa
:0400a8000804000048
:020000040000fa
:0400ac000804000044
:020000040000fa
:0400b0000804000040
:020000040000fa
:0400b400080400003c
:020000040000fa
:0400b8000804000038
:020000040000fa
:0400bc000804000034
:020000040000fa
:0400c0000804000030
:020000040000fa
:0400c400080400002c
:020000040000fa
:0400c8000804000028
:020000040000fa
:0400cc000804000024
:020000040000fa
:0400d0000804000020
:020000040000fa
:0400d400080400001c
:020000040000fa
:0400d8000804000018
:020000040000fa
:0401080008040000e7
:020000040000fa
:04010c0008040000e3
:020000040000fa
:0401100008040000df
:020000040000fa
:0401140008040000db
:020000040000fa
:0401180008040000d7
:020000040000fa
:04011c0008040000d3
:020000040000fa
:0401200008040000cf
:020000040000fa
:0401240008040000cb
:020000040000fa
:0401280008040000c7
:020000040000fa
:04012c0008040000c3
:020000040000fa
:0401300008040000bf
:020000040000fa
:040134002a0300009a
:020000040000fa
:0401380008040000b7
:020000040000fa
:04013c0008040000b3
:020000040000fa
:0401400008040000af
:020000040000fa
:040144000e030000a6
:020000040000fa
:0401480008040000a7
:020000040000fa
:04014c0008040000a3
:020000040000fa
:04015000080400009f
:020000040000fa
:040154007e03000026
:020000040000fa
:040158000804000097
:020000040000fa
:04015c000804000093
:020000040000fa
:04016000080400008f
:020000040000fa
:040164002402000071
:020000040000fa
:040168000804000087
:020000040000fa
:04016c000804000083
:020000040000fa
:04017000080400007f
:020000040000fa
:04017400080400007b
:020000040000fa
:040178000804000077
:020000040000fa
:04017c000804000073
:020000040000fa
:04018000080400006f
:020000040000fa
:04018400080400006b
:020000040000fa
:04018800fc01000076
:020000040000fa
:04018c00c8010000a6
:020000040000fa
:04019000080400005f
:020000040000fa
:04019400080400005b
:020000040000fa
:040198000804000057
:020000040000fa
:04019c000804000053
:020000040000fa
:0401a000080400004f
:020000040000fa
:0401a400080400004b
:020000040000fa
:0401a8000804000047
:020000040000fa
:0401ac000804000043
:020000040000fa
:0401b000080400003f
:020000040000fa
:0401b400080400003b
:020000040000fa
:0401b8000804000037
:020000040000fa
:0401bc000804000033
:020000040000fa
:0401c000080400002f
:020000040000fa
:0401c400080400002b
:020000040000fa
:0401c8000804000027
:020000040000fa
:0401cc000804000023
:020000040000fa
:0401d000080400001f
:020000040000fa
:0401d400080400001b
:020000040000fa
:0401d8000804000017
:020000040000fa
:100200008f9620000eff20000e01880000000000e5
:10021000000020000000e000020032000001200089
:1002200020028800140007007b0107000000e000a6
:1002300003003a0000fc200001002000020037000b
:100240000000200001002000810f7000010032003a
:1002500014000700000020000000e000020032004f
:100260000000020000000000321002000000000048
:100270000040da000000fe004440a900e001200038
:100280000000e0000300320000002000a001880010
:100290004440a800000006008a1f78008b1f7800e9
:1002a0000000060091018800800478000000eb0047
:1002b0001a003700e284440032a0b4009905ba0065
:1002c000e284440032a0b4009906ba00e2844400fb
:1002d00032a0b4000006eb00476fde00fd07b2005d
:1002e000636ce10003003a00ebff07000000eb0045
:1002f0000a003700606ce10004003a00005deb008a
:100300008b05e900fdff3e00040037006168e10055
:10031000010032000086eb000b00070019c7ba008d
:100320001905ba000e04e00003003a000a00e000dc
:10033000e0ff3a0000000600fe07b2009e018800c0
:100340008a047800f5ff3700395dba008b05e900b3
:100350000c003200295dba008b05e900080032006c
:100360000c00e00003003a00e284440032a0b40034
:10037000f5ff370019ddba008b05e900faff3a00f6
:100380008904e800e184440032a0b40000000600c3
:10039000809fbe000000fa008720a9002040800056
:1003a000e10f500011003a00004080000000e8001a
:1003b0000040880011408000004080000080400024
:1003c000104078000004e000070032001140800077
:1003d0000040800000804000104078000000fb00da
:1003e000d0108800010037000428ef000080fa00d8
:1003f0004f00be00004006003600f800809fbe009f
:10040000829fbe00849fbe00869fbe000000fa004f
:100410008700a900e01080000040780006e8b700df
:100420000768ef0060802000f20107000080fa00fa
:100430004f03be004f02be004f01be004f00be0082
:100440003600f900004006003600f800809fbe002c
:10045000829fbe00849fbe00869fbe000000fa00ff
:1004600085e0a900f04680000000e00013003200a3
:100470000821ef000621ef0090042000700888009a
:1004800000e0230060088800010507000000e90083
:100490008000400040912000008040001000780063
:1004a000a04688001000200090488800a0468000e8
:1004b000b0468800de28ef00510037003008800089
:1004c0008000eb000047880011478800400880004a
:1004d0008000eb00f047880001488800f04780006a
:1004e00001488000c001dd000200200000478000bc
:1004f00011478000020040008380480000478800c8
:10050000114788000821ef000621ef000047800016
:10051000114780000d0507003048880041488800d9
:10052000e0478000e50f500004003c00e0478000f9
:100530000000e800e04788000200370010002000bb
:10054000e0468800d20407000000e9008000400077
:10055000409120000080400010007800a0468800f4
:100560001000200090488800a1468000b04680001e
:1005700000805000c0468800c14680001000200066
:100580000100e000010034000000eb00d0468800cc
:10059000a0468000b0468800304880004148800076
:1005a00000004000818048001048880021488800f1
:1005b000124880002348800000a02600810120000e
:1005c000800f5100818f59000400360000a02600e2
:1005d00081012000104888002148880010488000d0
:1005e000214880004008de00000078007008880084
:1005f00010488000214880000000780060088800d2
:100600000080fa004f03be004f02be004f01be0043
:100610004f00be003600f90000400600809fbe007b
:100620000000fa0084e0a9000080eb008080eb006d
:100630003048880041488800dc28ef001000200086
:10064000f0468800fc28ef000080fa004f00be0052
:10065000004006003600f800809fbe00829fbe006a
:10066000849fbe00869fbe000000fa008460a9003f
:10067000104a80000000e800104a8800204a8000ec
:100680000000e800204a8800304a80000000e800ae
:10069000304a8800114a8000404a8000808f500014
:1006a00003003a004229ef0013040700e6020700a6
:1006b000214a8000504a8000808f500002003a009a
:1006c0004429ef00bf040700314a8000604a8000df
:1006d000808f500002003a004629ef00a801070071
:1006e0000080fa004f03be004f02be004f01be0063
:1006f0004f00be003600f900004006003600f8004a
:10070000809fbe00829fbe00849fbe00869fbe0069
:100710000200fa008560a900111580000008200081
:10072000008060000000e00003003200002820008c
:100730008049880002003700002920008049880095
:100740002629ef002a29ef002e29ef000000eb00f8
:10075000000f78001e00370080498000900078006c
:100760000080e80080498800a09320007b050700f6
:1007700051498000010040005049880080498000b4
:1007800010017800714980008100410071498800a2
:100790000080e80080498800804980000080e800ef
:1007a000804988008049800090007800c308dd00ff
:1007b0000080e8008049880040932000670507001a
:1007c0003149800001004000304988001e0fe800d8
:1007d0001e007800e10f5000dfff34003149800037
:1007e00020052e00008040002049880050498000ec
:1007f000404988000080fa004f03be004f02be004f
:100800004f01be004f00be003600f9000040060058
:100810000040da000000fe0000000500839f680031
:100820000100e00002003d0060001000e0801800c0
:100830000300e00002003d0060011100e0811900aa
:10084000420007004f00e00002003b006000100083
:10085000e080180000000600140020004b00370064
:10086000f4ff2f00490037000001be0022000700fe
:100870000470a70003f0a1006509b1001600320062
:100880000d0035006828e10006003500f0ff2f005c
:10089000f1ff27000300e00013003b0001002800e7
:1008a0000000050000004000818048008502e9004a
:1008b000fcff3a0008003700f88f420002003c00bd
:1008c0008000eb00000005008100d1000080d30013
:1008d0008502e800fcff3a000300e00002003b0054
:1008e00060001000e0801800000006004f89de0064
:1008f0008201780040003700c70ade00f107b2002d
:10090000f50fb20008003200e1cf420002003200d1
:100910000170a00024000500810f7000010032006a
:100920000408050044000500810f700002003a0031
:10093000140005008502e9000000400081c0480065
:10094000fcff3b000170a000240005006022b800fd
:10095000060220000000d0008180d2000482d20074
:100960008582d2000000a0000202520083825a0059
:10097000030031000202420083824a000000a1000d
:100980000603e900f3ff3a0000000600889fbe005e
:100990008a9fbe00841f78007c0007004f0078000b
:1009a00011003300f0ff2f00838f6c0006003b0026
:1009b000040565000a00a7000800370009f0a6003a
:1009c0001000200008003700820f5400838f5c0065
:1009d000030039001000200001003e00000020004c
:1009e00009f0a7000000ea004f05be004f04be005a
:1009f0000000e00000000600881f78000304780073
:100a00000300e00007003d0060001000e0801800d7
:100a100060011900e081190002003b0001f02d0087
:100a2000030037000400070008f0a70001f0a00051
:100a30004f04780000000600889fbe008a9fbe0019
:100a400000827000040271000482710026003200ee
:100a50000004be000200be006011b8006b09200057
:100a6000950220000182cf000a0039000541b10043
:100a70000082cf00070039000541b1000982cf0094
:100a8000040039000541b1000882cf00010039009f
:100a90000541b10005425200120032000a003b003d
:100aa00082817100610164008100d1000080d30067
:100ab0008984d3000884d3008b05e8000442e80051
:100ac000f7ff3a00070037000804440089844c000f
:100ad00000004800818048008b05e9000442e900dd
:100ae000f9ff3a00030007004f05be004f04be00a7
:100af0000000060081002000618055000b003d00d1
:100b00000b00200061fe2f000100e1001d003400f9
:100b100082817100610164008904d1000884d300de
:100b20000000e800faff3a00710020006100640054
:100b300003007000020060000900320061044400fc
:100b4000e0844c000988a500050032008b05e80010
:100b50006808e10002003a008904d1000884d3004b
:100b6000f20f20000258e10005003d00c75ddd00e6
:100b7000f907b200898075000800780000000600bf
:100b80000bf827008b007800000005000004be0071
:100b900059ff07000003be000405be000200be00ae
:0c0ba00055ff0700844f750000000600a0
:020000040000fa
:100bac004c4c0000206e0000207300006f6c0000a5
:100bbc006c3a0000200000000a6e00002069000062
:100bcc00737400003a200000000a00004920000065
:0c0bdc0069730000743a00002000000063
:020000040000fa
:100be8000000fa000080fa00000006000600fa0083
:100bf800881f7800e40047008008780064004700f8
:100c08009000780071468800704680009040780017
:100c1800d0c2b30080cf500005003200704680007b
:100c280090407800b0c2b30080cf500004003a0072
:100c38007046800010407800c50307002c0037007c
:100c4800704680009040780010c6b30080cf5000f6
:100c580005003200704680009040780040c6b3001e
:100c680080cf500004003a007046800010407800a1
:100c7800920307001e00370070468000104078007d
:100c88000000fb000003b100cf80de0015ff070065
:100c9800008fbe0018c0b3006011b8001e00be006f
:100ca800edfe07000000e00001003d000044eb00fd
:100cb8000804e0000e00320018c0b3000200200053
:100cc800031124001e00be00e1fe07000000e00042
:100cd800010034000044eb000804e0000400320086
:100ce8001e00be00defe0700000078006603070055
:100cf8004f0478000080fa00000006000400fa00a3
:100d080008040700000f780012002000a1862000c8
:100d18001e007800a2000700800078000e80e8001e
:100d2800010878000e80e80090007800a086200076
:100d380000804000a1c0b300014878000e80e800a0
:100d4800100078008000e8000e80e80001087800b4
:100d58000e80e80090007800a08620000080400007
:100d68008040eb0001487800a0862000720407004c
:100d78000080fa00000006003400fa00b2002000eb
:100d8800615d2800a0862000f000070080468800ea
:100d9800870307008e80e80012002000800007000b
:100da800000f78008046800080007800a086200030
:100db800008040008e80e8001e017800e3000700f4
:100dc80081468000010040008046880080468000ff
:100dd80080007800a086200000804000820020006b
:100de800215e2800d90007008146800001004000ec
:100df80080468800ab0207008e80e80012002000c1
:100e080067000700000f78008046800080007800a7
:100e1800a0862000008040008e80e8001e01780037
:100e2800ca00070081468000010040008046880013
:100e38008046800080007800a08620000080400066
:100e480082002000b15e2800c000070081468000b3
:100e58000100400080468800b20307008e80e80049
:100e6800120020004e000700000f78008046800026
:100e780080007800a0862000008040008e80e80076
:100e88001e017800b1000700814680000100400083
:100e98008046880080468000a186200081004000ae
:100ea800a2c0b300824878000000e80080468800ad
:100eb80080468000a186200081004000a2c0b300c7
:100ec800824878000000e80080468800814680005b
:100ed800a0862000008040008040eb000148780098
:100ee800a0862000140407000080fa000000060015
:100ef8000000fa00870207000001eb00a18620002d
:100f0800270007008046880080468000a1862000d0
:100f180081004000a2c0b300824878000000e800c9
:100f28008046880081468000a0862000008040001e
:100f38008040eb0001487800a0862000fe030700ef
:100f48000080fa00000006000000fa00790307009c
:100f58000001eb00a18620001100070080468800f0
:100f680080468000a186200081004000a2c0b30016
:100f7800824878000000e8008046880081468000aa
:100f8800a0862000008040008040eb0001487800e7
:100f9800a0862000e80307000080fa000000060091
:100fa8001000fa00e8014700800978006a0047004d
:100fb800010878006c004700020878000000eb0088
:100fc800000f7800017122000e80e8000108780007
:100fd8008000eb0064004700010878006c004700bf
:100fe800100078000000e0001000320068004700a0
:100ff800100078000000e0000c003d009e00780022
:101008006a0047001000780001004000d1c2b30018
:101018000148780068004700100078008000ea0066
:1010280068004700010878001e0fe80066004700c6
:10103800e800470011087800370037000e80e80004
:1010480090007800660047001000780001017800e1
:10105800110009000280d8000000e00008003a00f2
:1010680064004700100078000000e00004003a0027
:101078000e80e80010007800e10f50001d003a00d3
:101088009e0078006a0047001000780001004000c8
:10109800700798008e80e80011017800e60047008c
:1010a80091007800110009008280d8008000fd00be
:1010b800814078000143b0007e019000014978002a
:1010c8000e80e80090007800660047001000780065
:1010d80001017800110009000280d800660047006d
:1010e800010878001100200064004700010878001a
:1010f8001e0fe8000e80e8001001780070662600d8
:101108000090b900c288de004f90de008080500059
:101118000e80e800010878000e80e80010007800d2
:101128000000e000c5ff3c009e0078006a00470010
:1011380010007800010040008040eb000148780072
:101148001e0078000080fa00000006000800fa007f
:101158008e81e80080097800640047000108780063
:1011680066004700020878000000eb00000f7800d6
:101178000b0037009e0078000e80e8001000780011
:10118800010040001e017800e4004700910078004b
:101198008280400091407800014878001e0fe800e6
:1011a80066004700100078009e007800808f50008d
:1011b800f0ff35009e0078000e80e80010007800ef
:1011c800010040008040eb00014878001e007800d4
:1011d8000080fa00000006000000fa0000ec2f0072
:1011e800c016880000102000d0168800f00f2000dc
:1011f800400e8800c021ef00610e8000f0f32f0040
:1012080000806000600e8800610e800000fc2f00e6
:1012180000806000a000b300600e8800f03120005c
:10122800200e8800d621ef00d821ef00da21ef0048
:10123800c221ef00c1e1a8000080fa00000006000a
:101248000000fa0052020700004b8800b9010700ad
:10125800f04a880052020700304b8800ad010700b1
:10126800104b8800af0107000000e0009100320039
:10127800f04a80000000e00005003a00114b8000b1
:1012880090e3200000804000104b880007003700e2
:10129800f04a8000e10f500004003a00114b800032
:1012a80020c7210000804000104b8800304b800090
:1012b8000000e00040003200104b80000000e00019
:1012c80007003500114b8000a0aa2200808f500033
:1012d80003003c0040302000a00e88003500370095
:1012e800114b8000a0aa2200808f50000700340014
:1012f800114b800040552500808f500003003c00b2
:1013080040002300a00e88002a003700114b8000ff
:1013180040552500808f500006003400104b800097
:101328000000e0000300350010002300a00e880034
:1013380020003700104b80000000e00008003d004e
:10134800104b800080007800a0aa2a00808f5000ef
:1013580003003e0010c02000a00e880015003700d2
:10136800104b800080007800a0aa2a00808f5000cf
:1013780008003600104b80008000780040552d0092
:10138800808f500003003e0000c12000a00e88009e
:1013980008003700104b80008000780040552d0071
:1013a800808f50009000360000312000a00e880089
:1013b800900037008f003700104b80000000e000dd
:1013c80007003500114b8000a0aa2200808f500032
:1013d80003003c0010c02000a00e880085003700e4
:1013e800114b8000a0aa2200808f50000700340013
:1013f800114b800040552500808f500003003c00b1
:1014080000c12000a00e88007a003700114b800030
:1014180040552500808f500006003400104b800096
:101428000000e0000300350000312000a00e880015
:1014380070003700104b80000000e00008003d00fd
:10144800104b800080007800a0aa2a00808f5000ee
:1014580003003e0040302000a00e880065003700e1
:10146800104b800080007800a0aa2a00808f5000ce
:1014780008003600104b80008000780040552d0091
:10148800808f500003003e0040002300a00e88001b
:1014980058003700104b80008000780040552d0020
:1014a800808f50005200360010002300a00e8800e4
:1014b80050003700304b80000000e000260032006a
:1014c800f1000700e30f500014003200e30f500052
:1014d80005003c00e10f50000a003200e20f500006
:1014e8000b0032001a003700e50f500011003200df
:1014f800e50f50000c003500e60f500010003200d8
:101508001300370000312000a00e88003900370092
:1015180010c02000a00e88003600370000c120004f
:10152800a00e88003300370040002300a00e88007a
:101538003000370040302000a00e88002d00370012
:1015480010002300a00e88000000000029003700ca
:10155800d421ef0027003700cb000700e30f50002d
:1015680016003200e30f500005003c00e10f500068
:1015780018003200e20f5000130032001800370044
:10158800e50f500007003200e50f50000800350055
:10159800e60f500012003a0000312000a00e88002b
:1015a8001400370010c02000a00e8800110037007a
:1015b80000c12000a00e88000e0037004000230064
:1015c800a00e88000b00370040302000a00e8800d5
:1015d8000800370010002300a00e8800050037001f
:1015e800d421ef000300370000000000010037009d
:1015f80000000000004b8000b00e8800004b800007
:10160800c00e8800004b8000d00e88000080fa00d1
:10161800000006000000fa00311680008003200058
:1016280001007000301688004115800080032000fa
:101638000100700040158800000e20000006880098
:10164800d10480000000270001007000d004880049
:1016580085e0a9001061a8000080eb006008880000
:101668000080eb0070088800b1048000f0ff2800bb
:10167800808060000000260001007000b00488002f
:1016880084e0a9008ce0a800d228ef00d428ef005d
:10169800dc28ef0010002000f0468800fc28ef004e
:1016a8000080eb008080eb003048880041488800cb
:1016b8001229ef0050552d00a0488800000028008e
:1016c800b0488800b0aa2a00c0488800b0aa220002
:1016d800d04888001c29ef0050552500f0488800a4
:1016e8008de0a80011e1a8000080fa0000000600c3
:1016f8000000fa00881f7800904880000000e00091
:1017080042003200300880008000eb00504888001a
:1017180061488800400880008000eb00704888001d
:10172800814888007048800081488000c001dd0041
:1017380002002000504880006148800002004000fc
:10174800838048005048880061488800d04680005f
:101758000000e00014003a00504880006148800012
:10176800b2aa22000289b900020178006002b90019
:101778008401780003014100b3aa22000300b800e5
:10178800010141008200780032488000434880000f
:101798006cfc070080007800a046800000804000b4
:1017a800a046880017003700d0468000e10f50009f
:1017b80014003a00a04680000004780050488000d9
:1017c80061488000b2aa22000289b90002017800ab
:1017d8006002b9008401780003014100b3aa220025
:1017e8000300b800010141008200780032488000ff
:1017f8004348800053fc07000000780000005400b4
:10180800a04688001229ef001c003700d04680004f
:101818000000e0000b003a0030488000414880009a
:101828000001be00009825005121200045fc07005a
:1018380080007800a046800000804000a046880014
:101848000e003700d0468000e10f50000b003a0030
:10185800a04680000004780030488000414880009d
:101868000001be00009825005121200035fc07002a
:101878000000780000005400a04688004f0478005b
:101888000080fa00000006000000fa0041168000ff
:1018980080032000008060004300de000080fa0022
:1018a800000006000000fa0030488000414880002f
:1018b800821620000289b900020178006002b9008e
:1018c8008401780003014100831620000300b8005a
:1018d80001014100820078000001be0000002500df
:1018e80091ba2a0017fc070000007800904688008b
:1018f800d0468000e10f500003003a009046800077
:101908000000ea0090468800904680000080fa00b7
:10191800000006000000fa00a04680000080fa00df
:10192800000006000000fa00e04680000080fa008f
:10193800000006000000fa00d04680000080fa008f
:10194800000006000800fa0064034700008bbe0090
:101958000049800011498000640347001603be0057
:10196800001f430001974b00640047001000be00b1
:101978003e034000ae8348001e00be004c09dd0057
:101988004402de0004027100c48ade000400530031
:1019980085805b0000498800114988001e00be0050
:1019a8004b0add004501de0002017200c589de0038
:1019b8000200be000080fa00000006000000fa00e5
:1019c800e19420009140780010c6b30080cf500009
:1019d80006003a0010000700c04a8000b04a88009c
:1019e800904a8000804a880009003700e19420006e
:1019f8009140780040c6b30080cf500004003a0000
:101a0800d04a8000b04a8800a04a8000804a8800f6
:101a18000080fa00000006000200fa00c500070076
:101a2800000f78001e00780000004000000f7800ca
:101a3800d06320009e007800808f500006003c0094
:101a480010002000904a8800e06320001e0050002b
:101a5800c04a88000a003700807020009e00780085
:101a6800808f5000050034005229ef00808f2f002e
:101a78001e004000c04a8800010037005829ef00c6
:101a88000080fa00000006000200fa00000f78004b
:101a98009e007800e06320000088b900000178000b
:101aa80020c721000090b9004f91de00028050004d
:101ab800d04a88000080fa00000006000200fa0000
:101ac800004f7800e19420009140780010c6b300e0
:101ad80080cf500008003a00b04a8000d04a880001
:101ae800804a8000a04a88001e417800e1942000c6
:101af8008248780014003700e19420009140780073
:101b080040c6b30080cf50000f003a00c2ff070064
:101b1800c14a8000d04a8000808f50000a003a00f5
:101b2800914a8000a04a8000808f50000300320054
:101b3800c04a80000000e00003003a001e4178001f
:101b4800e1942000824878000080fa000000060036
:101b58000200fa00004f7800b0c2b3009e4078003f
:101b680080cf500003003a0010002000a04a8800ef
:101b780005003700d0c2b3009e40780080cf5000e7
:101b880001003a005429ef000080fa000000060026
:101b98000000fa00b04a80000080fa000000060049
:101ba8000000fa00804a80000080fa000000060069
:101bb8000000fa00b04a8000e1632000810f500065
:101bc80001003400e0632000b04a8800b04a800079
:101bd800cf80de00321720000289b90002017800a8
:101be8006002b90084017800030141003317200026
:101bf8000300b8000101410082007800e263200080
:101c08000300200003fb070000007800e04a88007a
:101c1800804a80000000e00003003a00e04a8000ab
:101c28000000ea0001003700e04a8000e04a88002e
:101c38000080fa00000006000000fa00e2fa210025
:101c4800610020004093200073000700226c2000f0
:101c580041002000a09320006f000700311680008b
:101c680040042000010070003016880041158000f3
:101c7800b0fb2f00008060004015880031158000ff
:101c880000ff2f00008060006000b300301588005e
:101c9800a6a2a9002115800000f021000100700013
:101ca8002015880021158000f00320000100700035
:101cb80020158800a222a8001115800030fc2f00f2
:101cc80000806000c001b300101588001115800065
:101cd800f0cf2f00008060000090a0001015880051
:101ce800a062a900a042a80001158000000e2000f3
:101cf8000100700000158800c1048000f0ff280072
:101d0800808060000000250001007000c004880089
:101d18008560a9008d60a800a1e2a8000080fa00f3
:101d2800000006000000fa00204980000080fa0048
:101d3800000006000000fa00404980000080fa0018
:101d4800000006000000fa00604980000080fa00e8
:101d5800000006000800fa00640147000009780046
:101d68006600470001087800660047001000780008
:101d78006101b90064004700100078001000be003f
:101d8800001f4100019749006600470010007800d5
:101d9800cf80de003e014000ae814800640047006d
:101da8001000780064004000100278001e00be0099
:101db800840278008502e900030033008180d100a5
:101dc8000080d300fbff37000000510081805900dc
:101dd80064014700120178000089be0064004700d2
:101de8001000780064004000100078000001e8004e
:101df8001e00be00820178008301e9000300330061
:101e08008180d1000080d300fbff370000007800fc
:101e18000080fa00000006000600fa00000f7800b3
:101e28000e80e80001087800640047000208780086
:101e38001e007800640040008e80e80011087800d9
:101e48006400470010007800cf80de000e81e800b3
:101e5800120178000201e8000002be0002037800c7
:101e68000603e900030033000402420085824a00a9
:101e7800fbff37000401be00640047001000780033
:101e8800cf80de0000005100818059001e017800db
:101e98000089be000080fa00000006000000fa0079
:101ea800b110800090ff2f0000806000b010880003
:101eb8001602a800204b8000f010880017e2a80046
:101ec8001942a80001058000f0f82f00808060000a
:101ed8000005200001007000000588000105800051
:101ee80080ff2f00008060005000b30000058800cc
:101ef8008720a9008700a9008f20a8008f00a800cc
:101f0800c1108000f0f32f00008060000060a00086
:101f1800c0108800114080000040eb008048780025
:101f280060c7b30006e8b7000768ef000428ef00b1
:101f38000080fa00000006000200fa00000f780096
:101f4800204080000000e00009003a009e00780070
:101f5800114088000028ef00100020002040880071
:101f680010408000104078000000fb00d01088006e
:081f78000080fa0000000600e1
:020000040000fa
:101f80006409000002000000020000006700000079
:101f9000000800006a00000000000000d2080000f5
:101fa00052000000000000005e0900000600000072
:101fb00000000000660900000200000002000000ae
:101fc000010000004e0900000800000002000000af
:101fd000610001000001000001000000560900003e
:101fe00008000000000000006a080000680000000f
:101ff00000000000420900000c000000000000008a
:10200000240900001e000000000000000000000085
:020000040000fa
:102010000000fa0000c8200010088800a104800019
:102020000000270001007000a00488008460a9005f
:102030008c60a8004229ef004429ef004629ef00f8
:1020400010002000404a880020032000504a8800e9
:10205000409c2000604a880005e1a8000080fa004a
:10206000000006000000fa005dfc07008dff07007d
:10207000ddfa0700f2fe070068fd0700e4ff070035
:04208000ffff370027
:020000040000fa
:0200000401f009
:04000000f6bf000047
:020000040000fa
:0200000401f009
:04000400c07f0000b9
:020000040000fa
:0200000401f009
:040008007cff000079
:020000040000fa
:0200000401f009
:04001400ffffff00eb
:020000040000fa
:0200000401f009
:04001800ffff0000e6
:00000001FF
