:020000040000fa
:080000000001040000000000f3
:020000040000fa
:04000800fe030000f3
:020000040000fa
:04000c00fe030000ef
:020000040000fa
:04001000fe030000eb
:020000040000fa
:04001400fe030000e7
:020000040000fa
:04001800fe030000e3
:020000040000fa
:04001c00fe030000df
:020000040000fa
:04002000fe030000db
:020000040000fa
:04002400fe030000d7
:020000040000fa
:04002800fe030000d3
:020000040000fa
:04002c00fe030000cf
:020000040000fa
:04003000fe030000cb
:020000040000fa
:040034005c03000069
:020000040000fa
:04003800fe030000c3
:020000040000fa
:04003c00fe030000bf
:020000040000fa
:04004000fe030000bb
:020000040000fa
:04004400480300006d
:020000040000fa
:04004800fe030000b3
:020000040000fa
:04004c00fe030000af
:020000040000fa
:04005000fe030000ab
:020000040000fa
:04005400c0030000e5
:020000040000fa
:04005800fe030000a3
:020000040000fa
:04005c00fe0300009f
:020000040000fa
:04006000fe0300009b
:020000040000fa
:040064002402000072
:020000040000fa
:04006800fe03000093
:020000040000fa
:04006c00fe0300008f
:020000040000fa
:04007000fe0300008b
:020000040000fa
:04007400fe03000087
:020000040000fa
:04007800fe03000083
:020000040000fa
:04007c00fe0300007f
:020000040000fa
:04008000fe0300007b
:020000040000fa
:04008400fe03000077
:020000040000fa
:04008800fc01000077
:020000040000fa
:04008c00c8010000a7
:020000040000fa
:04009000fe0300006b
:020000040000fa
:04009400fe03000067
:020000040000fa
:04009800fe03000063
:020000040000fa
:04009c00fe0300005f
:020000040000fa
:0400a000fe0300005b
:020000040000fa
:0400a400fe03000057
:020000040000fa
:0400a800fe03000053
:020000040000fa
:0400ac00fe0300004f
:020000040000fa
:0400b000fe0300004b
:020000040000fa
:0400b400fe03000047
:020000040000fa
:0400b800fe03000043
:020000040000fa
:0400bc00fe0300003f
:020000040000fa
:0400c000fe0300003b
:020000040000fa
:0400c400fe03000037
:020000040000fa
:0400c800fe03000033
:020000040000fa
:0400cc00fe0300002f
:020000040000fa
:0400d000fe0300002b
:020000040000fa
:0400d400fe03000027
:020000040000fa
:0400d800fe03000023
:020000040000fa
:04010800fe030000f2
:020000040000fa
:04010c00fe030000ee
:020000040000fa
:04011000fe030000ea
:020000040000fa
:04011400fe030000e6
:020000040000fa
:04011800fe030000e2
:020000040000fa
:04011c00fe030000de
:020000040000fa
:04012000fe030000da
:020000040000fa
:04012400fe030000d6
:020000040000fa
:04012800fe030000d2
:020000040000fa
:04012c00fe030000ce
:020000040000fa
:04013000fe030000ca
:020000040000fa
:040134005c03000068
:020000040000fa
:04013800fe030000c2
:020000040000fa
:04013c00fe030000be
:020000040000fa
:04014000fe030000ba
:020000040000fa
:04014400480300006c
:020000040000fa
:04014800fe030000b2
:020000040000fa
:04014c00fe030000ae
:020000040000fa
:04015000fe030000aa
:020000040000fa
:04015400c0030000e4
:020000040000fa
:04015800fe030000a2
:020000040000fa
:04015c00fe0300009e
:020000040000fa
:04016000fe0300009a
:020000040000fa
:040164002402000071
:020000040000fa
:04016800fe03000092
:020000040000fa
:04016c00fe0300008e
:020000040000fa
:04017000fe0300008a
:020000040000fa
:04017400fe03000086
:020000040000fa
:04017800fe03000082
:020000040000fa
:04017c00fe0300007e
:020000040000fa
:04018000fe0300007a
:020000040000fa
:04018400fe03000076
:020000040000fa
:04018800fc01000076
:020000040000fa
:04018c00c8010000a6
:020000040000fa
:04019000fe0300006a
:020000040000fa
:04019400fe03000066
:020000040000fa
:04019800fe03000062
:020000040000fa
:04019c00fe0300005e
:020000040000fa
:0401a000fe0300005a
:020000040000fa
:0401a400fe03000056
:020000040000fa
:0401a800fe03000052
:020000040000fa
:0401ac00fe0300004e
:020000040000fa
:0401b000fe0300004a
:020000040000fa
:0401b400fe03000046
:020000040000fa
:0401b800fe03000042
:020000040000fa
:0401bc00fe0300003e
:020000040000fa
:0401c000fe0300003a
:020000040000fa
:0401c400fe03000036
:020000040000fa
:0401c800fe03000032
:020000040000fa
:0401cc00fe0300002e
:020000040000fa
:0401d000fe0300002a
:020000040000fa
:0401d400fe03000026
:020000040000fa
:0401d800fe03000022
:020000040000fa
:100200006f8620000eff20000e0188000000000015
:10021000000020000000e000020032000001200089
:100220002002880014000700760107000000e000ab
:1002300003003a0000fe2000010020000200370009
:100240000000200001002000810f7000010032003a
:1002500014000700000020000000e000020032004f
:1002600000000200000000008a10020000000000f0
:100270000040da000000fe004440a9000000200019
:100280000000e0000300320000002000a001880010
:100290004440a800000006008a1f78008b1f7800e9
:1002a0000000060091018800800478000000eb0047
:1002b0001a003700e284440032a0b4009905ba0065
:1002c000e284440032a0b4009906ba00e2844400fb
:1002d00032a0b4000006eb00476fde00fd07b2005d
:1002e000636ce10003003a00ebff07000000eb0045
:1002f0000a003700606ce10004003a00005deb008a
:100300008b05e900fdff3e00040037006168e10055
:10031000010032000086eb000b00070019c7ba008d
:100320001905ba000e04e00003003a000a00e000dc
:10033000e0ff3a0000000600fe07b2009e018800c0
:100340008a047800f5ff3700395dba008b05e900b3
:100350000c003200295dba008b05e900080032006c
:100360000c00e00003003a00e284440032a0b40034
:10037000f5ff370019ddba008b05e900faff3a00f6
:100380008904e800e184440032a0b40000000600c3
:10039000809fbe000000fa008720a9002042800054
:1003a000e10f500011003a00004280000000e80018
:1003b000004288001142800000428000008040001e
:1003c000104078000004e000070032001142800075
:1003d0000042800000804000104078000000fb00d8
:1003e000d0108800010037004428ef000080fa0098
:1003f0004f00be00004006003600f800809fbe009f
:10040000829fbe00849fbe00869fbe000000fa004f
:100410008700a900e01080000040780046e8b7009f
:100420004768ef0060842000600407000080fa0045
:100430004f03be004f02be004f01be004f00be0082
:100440003600f900004006003600f800809fbe002c
:10045000829fbe00849fbe00869fbe00881f7800da
:100460000000fa0085e0a900404080000000e000a4
:10047000170032000821ef000621ef009004200051
:100480007008880000e02300600888005906070013
:100490000000e90080004000e08020000080400073
:1004a00010007800504088005040800080004000dc
:1004b00080822000008040001000780010408800fa
:1004c00010408000204088000828ef0068003700b6
:1004d000300880008000eb00e0408800f140880098
:1004e000400880008000eb00004188001141880036
:1004f0000041800011418000c001dd0002002000a9
:10050000e0408000f140800002004000838048000d
:10051000e0408800f14088000821ef000621ef004c
:100520003406070060408800614080005040800031
:1005300000805000d0408800d0408000e50f40008f
:100540000f003a00e0408000f14080000001be0052
:1005500000402200410f20001201070080007800b7
:10056000800220000088b900000078000040880068
:10057000204080000019b00010408800290037009a
:10058000d0408000e50f50000f003a00e0408000ae
:10059000f14080000001be0000402200410f200019
:1005a000000107008000780080fd2f000088b9005e
:1005b0000000780000408800204080000019b00052
:1005c0001040880017003700d140800080022000d2
:1005d0000088b90000007800cf80de0000047800b9
:1005e000e0408000f14080000001be000040220099
:1005f000410f2000eb0007000000780000c0b900a8
:100600000000780000408800d140800000192000e0
:100610000088b900000078002140800001004000ff
:1006200010408800100020003040880010408000fa
:1006300020408800e0408000f14080000000400041
:10064000818048002041880031418800204180009d
:10065000314180004008de0000007800700888000a
:10066000204180003141800000007800600888004f
:100670000080fa004f0478004f03be004f02be0016
:100680004f01be004f00be003600f90000400600da
:10069000801f78000000fa0084e0a9000028ef0025
:1006a0000628ef0010002000404088000080fa007b
:1006b0004f007800004006003600f800809fbe0022
:1006c000829fbe00849fbe00869fbe00889fbe00a2
:1006d0000000fa008460a900a04180000000e8004a
:1006e000a0418800b04180000000e800b0418800cf
:1006f000c04180000000e800c0418800a1418000a6
:10070000d0418000808f50000a003a003428ef006a
:10071000b805070080047800640607004d00070054
:10072000000478005d060700090178008800780061
:10073000aa040700b1418000e0418000808f500092
:1007400001003a003628ef00c1418000f0418000ee
:10075000808f500002003a003828ef00e8030700bd
:100760000080fa004f04be004f03be004f02be00df
:100770004f01be004f00be003600f90000400600e9
:10078000809fbe00821f78000200fa008560a900e9
:1007900000282000a04288005228ef000000eb0053
:1007a000000f780008003700a04280001001780098
:1007b0009142800081004100914288000080e80061
:1007c000a04288001e0fe8001e007800e70f5000ce
:1007d000f5ff3400904280000000e00001003d0081
:1007e000670040004380de00804288000080fa00fd
:1007f0004f0178004f00be00004006000040da00c4
:100800000000fe0000000500839f68000100e0007a
:1008100002003d0060001000e08018000300e000ce
:1008200002003d0060011100e08119005d00070039
:100830004f00e00002003b0060001000e080180064
:100840000000060014002000cd023700f4ff2f0046
:10085000cb0237000001be003d0007000470a70076
:1008600003f0a1006509b100160032000d0035004b
:100870006828e10006003500f0ff2f00f1ff270097
:100880000300e00013003b00010028000000050009
:1008900000004000818048008502e900fcff3a002a
:1008a00008003700f88f420002003c008000eb0097
:1008b000000005008100d1000080d3008502e8001f
:1008c000fcff3a000300e00002003b006000100063
:1008d000e0801800000006000001be001c000700b8
:1008e0000470a70003f0a10003f8a30013003a006e
:1008f0006509b10010003200090035006928e100e7
:100900000200350001002800000005000000400042
:10091000818048008502e900fcff3a0000000600e3
:10092000f88f4200050035008100d1000080d3001f
:100930008502e800fcff3a00000006008000eb00a2
:10094000000005004f89de0082017800a702370011
:10095000c70ade00f107b200f50fb200080032004e
:10096000e1cf4200020032000170a0002400050027
:10097000810f7000010032000408050044000500ea
:10098000810f700002003a00140005008502e900a2
:100990000000400081c04800fcff3b000170a00047
:1009a000240005006022b800060220000000d000ec
:1009b0008180d2000482d2008582d2000000a00093
:1009c0000202520083825a000300310002024200f8
:1009d00083824a000000a1000603e900f3ff3a0009
:1009e00000000600889fbe008a9fbe008c9fbe004c
:1009f0001b0020000202be000586680006002800d9
:100a0000060666004709de00f20fb20082003200df
:100a10000243e80080003200c729de00f30fb20075
:100a20007d0032000343e8007b003200f107b20092
:100a30000170a000f507b2000570a000c708dd0036
:100a40004903de00868070004700dd00c72add0014
:100a50004923de00868272004722dd000305510033
:100a6000040350008583580003003100000040005b
:100a7000818048000a05e9008c1f78008a9fbe002b
:100a800004005000858058000402420085824a001c
:100a900000004000818048000005eb000004be001b
:100aa0006033b8000406be000d48e1005600310076
:100ab000110009004dccd8000c01b8000d02b8009f
:100ac0008481410060824a008283530003045c00f9
:100ad00084845c0060055d000a00e00025003a00a7
:100ae000800578000d40e100490031008800780061
:100af00007007800110009004d88d8000c01b800eb
:100b00000d02b8008481410060824a006003110038
:100b100083835b0004045c00e0845c000900e00067
:100b200021003a004f01be000300e0002b0032001c
:100b3000e3016000070673008c8171000100320040
:100b4000640070004200de004e5edd000c007000ac
:100b5000c258de0001e0a00083010700cf01780049
:100b6000818071004f06be004f05be004f04be00dd
:100b7000000006008c8343000d044c00e0844c0010
:100b800060054d000000e9000a00e000d4ff3200db
:100b90008c8343000d044c00e0844c0060054d0044
:100ba0000000e900ceff37000c0343008d834b00ab
:100bb00060044c00e0844c000000e9000900e00003
:100bc000d8ff32000c0343008d834b0060044c00bf
:100bd000e0844c000000e900d2ff37004200de0054
:100be0004e5edd000c007000c258de0001e0a00087
:100bf000cf0178000300e000daff3200600010004f
:100c0000e0801800d7ff3700f0ff2f00aaff370061
:100c1000f0ff2f00b9ff37000404be002f010700ca
:100c2000870678000004fd008104fd002b01070009
:100c3000078366000678a300030032000960a7005e
:100c40000800be002c0037000d78a300020032001f
:100c50000800be00280037000778a30026003a00ed
:100c600001f0a10009f0a1000668a3000300320012
:100c7000f1ff2700f0ff2f00baff37000d68a30037
:100c8000030032000800be008c807000b5ff370002
:100c90000768a30007003a000648a30003003200db
:100ca000f1ff2700f0ff2f00aeff37000d48a30033
:100cb000030032006000b8008c807000a9ff37008c
:100cc0000748a3000400320001f8270000002000bc
:100cd0008c807000a3ff3700760107000004fd0040
:100ce0008104fd0002057800720107000802be00c1
:100cf0008a01780059ff37000160a000120220002d
:100d00002243880097ff37000100e0001200320004
:100d10000500e00010003200889fbe008a9fbe00e0
:100d20008c9fbe000006eb0001f8a3000300320018
:100d300060001000e08018000cf0a00005f8a3008f
:100d40000300320060021200e0821a000cf0a200e0
:100d50008005eb0041ff37006000b800020005008d
:100d6000038368000700280007036300470ade00ca
:100d70000480a100c71ade000580a100f70f200043
:100d80000720e100420032000728e1004000320065
:100d9000889fbe008a9fbe008c1f7800f107b200ba
:100da000f307b2000400e000640032000170a0000c
:100db0000500e000680032000370a00085054200d5
:100dc000eb07b1000204b8000302b80084844400b9
:100dd00060854a00020ab800848444000a854a00fb
:100de000030ab80004054500040033000804d000dd
:100df0008984d2000a85d2008b05e9006158e100a0
:100e00003d003500021020000901610003082000a8
:100e100089816100f70720008783640008867300da
:100e2000c84cde00c853dd00878474004855de00de
:100e30000300e00006003200820376000400320066
:100e40008904e80060054d000a88a3000c003a0000
:100e5000f70f20000758e10044003d000a70a10090
:100e6000c75ddd000a8575008a00730009007800ff
:100e70004f0678004f05be004f04be00000006007c
:100e80000a05d1008984d3008b05e800f0ff370004
:100e9000881f780006047800900007000702780099
:100ea0000001fd008101fd008c0007008702780031
:100eb000850372000778a300050032000001fd00e1
:100ec0008101fd009f0007004f047800000006002c
:100ed000850372000748a30003003200f0ff2f00d3
:100ee000f1ff2700f8ff37000000200001f827007d
:100ef00088807000f4ff3700880178004848dd00e2
:100f0000808171004848de00c850dd00010070009b
:100f1000c850de00060478000b01780016000700b8
:100f200088807000d2ff37000500e0000500320025
:100f3000170020003a0007009dff37008103700072
:100f4000f9ff3a00860078004f0678004f05be0092
:100f50004f04be000000050083037100f9ff32005a
:100f6000270020002e00070094ff370001f827001b
:100f700086807000f4ff37000100e0002600320098
:100f8000610111007810e10023003c006022b800ec
:100f90007010e10004003500800278000100780044
:100fa0008000eb00700151000200e00009003400f5
:100fb00070031100062add00822ade008603dd00b0
:100fc000878272000200de00860bdd0007007000e1
:100fd0008208de0084817100f4ff27000482620031
:100fe0008481710004002800848262006102600034
:100ff00005f0a60000000600048271000700320020
:101000000000e800e0804800000006000002be008a
:101010006000b800efff37006000b8000000060075
:10102000889fbe000004eb006138e10016003a0022
:101030000100e00008003a00c800de004800dd00c2
:10104000880020000100e00003003a00c800de0034
:101050004800dd00680444008184cf00e984540026
:10106000060034008908dd00f08314008703de00e9
:10107000878070000900dd0009044400610214004b
:101080004f04be00000006000300e00008003a0024
:10109000c811de004811dd00880020000300e000d8
:1010a00003003a00c811de004811dd006804440066
:1010b0008384cf00e9845400060034008919dd00e0
:1010c000f08314008713de00878171000911dd00b1
:1010d00009044400e1021400e9ff37002700200062
:1010e00001f0a70017002000470bde00f60fb2004a
:1010f000040032000643e8000a0032004702b30051
:101100000000060001037800f607b2000603700035
:1011100002003a000703b300000006008702b30094
:101120000000060001037800f607b2000603700015
:10113000020032000770a000000006000760a00057
:10114000000006000478a300040032000578a30024
:10115000030032000168a30001003a000200be0053
:101160000160a0000000060081017000270032002d
:101170008002eb0001f8a3000300320060001000c1
:10118000e080180015002000f40720000202420051
:1011900020003400f70320008703600006042000cd
:1011a0000003630002082000000161004700de0028
:1011b000c909dd0000807100c708de000600e000fc
:1011c0000800320087037100060032001000b000f2
:1011d0000180b0000188a30002003200c108de00d7
:1011e0000402e800f107b200f30f20000320e10041
:1011f00003003d004722dd00810072002900370016
:1012000001f827000000eb00260037006000b8005e
:1012100000000600680212007f20e1000200340096
:101220006000b8001f0037006011b8007020e100b6
:101230000400350080017800010078008000eb0098
:10124000700252000400e00009003400f0031200b4
:101250000719dd008419de000703dd0086817100b7
:101260000400de00070bdd00060070008408de00cd
:10127000f7ff2700838363008703710006002800bf
:1012800003036300070032000700e00003003a0098
:101290006101600002817300020032001000b000a2
:1012a0000180b0000500a6000000060001f0a000cb
:1012b000000006004f0ade004709de00f107b20019
:1012c000f20fb2000b003200f207b1000170a00073
:1012d000c708dd00c901de00838070004700dd0023
:1012e0000400a6000000060060001000e080180066
:1012f00000000600810f700001003a0000000600a7
:101300008182cf000500e00010003e008082cf0007
:10131000ee8242007028e1000400390007003e0020
:10132000800078000000eb000e0037007083120090
:101330008600de000500dd000a00370070835200e1
:101340008600dd000000eb0006003700e28252005c
:101350008508dd00708312000603de0086807000c1
:101360000500dd007507b0000501ea000400a600d5
:101370000000060060001000e08018000000060079
:10138000889fbe008a9fbe00841f78007c000700f3
:101390004f00780011003300f0ff2f00838f6c00a6
:1013a00006003b00040565000a00a700080037009e
:1013b00009f0a6001000200008003700820f54003a
:1013c000838f5c00030039001000200001003e0004
:1013d0000000200009f0a7000000ea004f05be0051
:1013e0004f04be000000e00000000600881f7800e7
:1013f000030478000300e00007003d0060001000d7
:10140000e080180060011900e081190002003b0033
:1014100001f02d00030037000400070008f0a700ca
:1014200001f0a0004f04780000000600889fbe0075
:101430008a9fbe0000827000040271000482710065
:10144000260032000004be000200be006011b80099
:101450006b092000950220000182cf000a003900ac
:101460000541b1000082cf00070039000541b100fd
:101470000982cf00040039000541b1000882cf0085
:10148000010039000541b10005425200120032004e
:101490000a003b0082817100610164008100d1007b
:1014a0000080d3008984d3000884d3008b05e80032
:1014b0000442e800f7ff3a00070037000804440040
:1014c00089844c0000004800818048008b05e900b9
:1014d0000442e900f9ff3a00030007004f05be008f
:1014e0004f04be000000060081002000618055000e
:1014f0000b003d000b00200061fe2f000100e10009
:101500001d00340082817100610164008904d100f2
:101510000884d3000000e800faff3a0071002000c0
:1015200061006400030070000200600009003200e6
:1015300061044400e0844c000988a50005003200e5
:101540008b05e8006808e10002003a008904d10038
:101550000884d300f20f20000258e10005003d008e
:10156000c75ddd00f907b2008980750008007800ca
:10157000000006000bf827008b0078000000050033
:101580000004be00f2fc07000003be000405be001c
:101590000200be00eefc0700844f7500000006004c
:020000040000fa
:1015a0000000fa000080fa00000006000200fa00c5
:1015b000881f7800000f78009e0078005142880054
:1015c000504280009040780060c7b30080cf500048
:1015d00005003200504280009040780020c7b300e0
:1015e00080cf500004003a00504280001040780044
:1015f000940207002000370050428000104078001d
:101600000000fb000003b100cf80de00cdfc07002e
:101610006042880071428800604280007142800010
:1016200018c0b3006011b80088fc07000000e0009b
:1016300001003d000044eb000804e0000e00320011
:10164000604280007142800018c0b3000200200098
:10165000031124007bfc07000000e00001003400bf
:101660000044eb000804e000030032006042800008
:1016700071428000820207004f0478000080fa0067
:10168000000006000400fa004902070021e02f00d4
:10169000010f4000818420001e0078003d000700fb
:1016a000800078000e80e800010878000e80e800d5
:1016b000900078008084200000804000a1c0b3002a
:1016c000014878000e80e800100078008000e800f3
:1016d0000e80e800010878000e80e8009000780095
:1016e00080842000008040008040eb0001487800aa
:1016f00080842000f50107000080fa000000060049
:101700000200fa00881f7800c101070081842000d0
:1017100020000700000f7800808420001e00400099
:10172000a1c0b300014878001e0fe8009e007800b9
:101730008084200000844000b90107008800780000
:1017400014000700000f7800808420001e00400075
:10175000a1c0b300014878001e0fe800808420007b
:101760001e004000d1c2b300014878001e0fe800ff
:10177000808420001e0040008040eb00014878007b
:1017800080842000d10107004f0478000080fa0017
:10179000000006000c00fa0066014700000978000e
:1017a00068004700010878000000eb00000f780097
:1017b000017122000e80e800010878008000eb0033
:1017c00064004700010878006600470010007800b8
:1017d0000000e00045003d009e00780068004700e2
:1017e0001000780001004000d1c2b3000148780029
:1017f00066004700100078008000ea00660047009d
:10180000010878001e0fe800380037006600470026
:10181000900078000e80e800100078000001780049
:10182000110009008200d8000000e00008003a0022
:1018300064004700100078000000e00004003a0057
:101840000e80e80010007800e10f50001e003a0002
:101850009e007800680047001000780001004000fa
:1018600050079800e6004700110178008e80e800dc
:101870009100780081017800110009000301d8006f
:101880008000fd00814078000143b0005e009000c0
:101890000148780066004700900078000e80e8005c
:1018a0001000780000017800110009008200d800c3
:1018b000660047000108780011002000640047001e
:1018c000010878001e0fe8000e80e8001001780083
:1018d000706626000090b900c288de004f90de00de
:1018e000808050000e80e800010878000e80e8003b
:1018f000100078000000e000c4ff3c009e0078006b
:101900006800470010007800010040008040eb00b4
:10191000014878001e0078000080fa0000000600f0
:101920000000fa0000ec2f00c01688000010200014
:10193000d0168800f00f2000400e8800c021ef0074
:1019400090192000200e8800f042800001438000a2
:10195000020020000311240022fc070002002800de
:10196000c33c2400fefc0700dbfb070000007800fe
:10197000b00e8800f0428000014380000200200089
:101980000311240017fc070002002800c33c2400b8
:10199000f3fc0700d0fb070000007800c00e8800b1
:1019a000f042800001438000020020000311240067
:1019b0000cfc070002002800c33c2400e8fc0700e0
:1019c000c5fb070000007800d00e8800c221ef00a0
:1019d000c1e1a8000080fa00000006000600fa003d
:1019e000004f78000e80e80001087800640047008e
:1019f0000208780060c7b3009e40780080cf500096
:101a00004e003a000e80e80010007800cf80de0023
:101a1000ccfb07000200200003112400f1fb0700ab
:101a200002002800c33c2400cdfc0700aafb0700ed
:101a300000007800b00e88000e80e80010007800ea
:101a4000cf80de00bffb070002002000031124004e
:101a5000e4fb070002002800c33c2400c0fc070090
:101a60009dfb070000007800c00e88000e80e80093
:101a700010007800cf80de00b2fb070002002000db
:101a800003112400d7fb070002002800c33c2400f8
:101a9000b3fc070090fb070000007800d00e880020
:101aa0006400470010007800e30f5000140032007b
:101ab000e30f500005003c00e10f50000a00320027
:101ac000e20f50000b0032001a003700e50f500003
:101ad00011003200e50f50000c003500e60f5000f9
:101ae000100032001300370000212000a00e8800f3
:101af0006200370010802000a00e88005f003700d1
:101b000000812000a00e88005c0037004000220009
:101b1000a00e88005900370040202000a00e880049
:101b20005600370010002200a00e880000000000c0
:101b300052003700d421ef005000370020c7b30017
:101b40009e40780080cf50004c003a000e80e800a4
:101b500010007800cf80de007afb07000200200032
:101b6000031124009ffb070002002800c33c24004f
:101b70007bfc070058fb070000007800b00e8800cf
:101b80000e80e80010007800cf80de006dfb0700bb
:101b9000020020000311240092fb0700020028002d
:101ba000c33c24006efc07004bfb070000007800dc
:101bb000c00e88000e80e80010007800cf80de00a4
:101bc00060fb0700020020000311240085fb0700d2
:101bd00002002800c33c240061fc07003efb070014
:101be00000007800d00e88006400470010007800e4
:101bf000e30f500016003200e30f500005003c00d8
:101c0000e10f500018003200e20f500013003200c4
:101c100018003700e50f500007003200e50f5000b4
:101c200008003500e60f500012003a0000212000a5
:101c3000a00e88001100370010802000a00e880040
:101c40000e00370000812000a00e88000b00370036
:101c500040002200a00e880008003700402020002d
:101c6000a00e88000500370010002200a00e88009a
:101c700002003700d421ef00000000000080fa00cd
:101c8000000006000200fa003116800080032000e8
:101c9000010070003016880041158000800320008c
:101ca0000100700040158800000e2000000688002a
:101cb000d10480000000270001007000d0048800db
:101cc00085e0a9001061a8000080eb006008880092
:101cd0000080eb007008880084e0a9008ce0a80078
:101ce0000028ef000228ef000628ef001000200077
:101cf0004040880010002000704088003000200024
:101d00008040880020002000904088005000200083
:101d1000a04088001628ef0040002000c040880046
:101d20000000eb00000f78000b0037009e007800e9
:101d3000001920000088b900000078000001780038
:101d40001e0078008000400080822000008040005b
:101d5000020878001e0fe8001e007800e50f500012
:101d6000f2ff34008de0a80011e1a8000080fa0025
:101d7000000006000000fa0001408000007721000a
:101d80000088b90000007800cf80de000224240023
:101d9000f30020009cfa070000007800114080004a
:101da000010040001040880011408000f0b72b0077
:101db000808f50000d0036001140800000a62e00dc
:101dc000808f5000050036001140800000b82b00c5
:101dd000008040001040880004003700114080005f
:101de0000048240000804000104088000080fa0075
:101df000000006000000fa00411680008003200069
:101e0000008060004300de000080fa000000060051
:101e10000000fa00004080000080fa000000060088
:101e20000000fa00104080000080fa000000060068
:101e30000000fa00b110800090ff2f0000806000c9
:101e4000b01088001602a80010438000f01088002f
:101e500017e2a8001942a80001058000f0f82f0041
:101e600080806000000620000100700000058800ee
:101e70000105800080ff2f00008060006000b3003b
:101e8000000588008720a9008700a9008f20a800ee
:101e90008f00a800c1108000f0f32f0000806000c8
:101ea0000060a000c0108800114280000040eb00dc
:101eb0008048780060c7b30046e8b7004768ef0085
:101ec0004428ef000080fa00000006000200fa003b
:101ed000000f7800204280000000e00009003a0076
:101ee0009e007800114288004028ef00100020007a
:101ef0002042880010428000104078000000fb0063
:101f0000d01088000080fa00000006000000fa00ef
:101f1000301680000020a000301688004015800098
:101f20000020a100401588003115800000ff2f001f
:101f3000008060000010a00030158800211580008e
:101f400000f021000100700020158800211580009c
:101f5000f00320000100700020158800111580009a
:101f600030fc2f0000806000c001b3001015880015
:101f7000a042a80001158000000e200001007000a2
:101f800000158800c1048000f0ff280080806000f8
:101f90000000250001007000c00488008560a900d1
:101fa0008d60a800a1e2a8000080fa0000000600f1
:101fb0000000fa00804280000080fa000000060065
:020000040000fa
:101fc000620800000200000002000000670000003c
:101fd00040080000080000000000000000080000a9
:101fe00034000000000000005e0800000400000053
:101ff00002000000000080003f00000058080000c0
:102000000600000002000000000080003f76000093
:10201000480800000800000000000000340800002c
:102020000c00000000000000500800000800000044
:102030000000000064080000020000000000000032
:04204000000000009c
:020000040000fa
:102044000200fa00004f78005cc8bf009e40780090
:1020540080cf5000070032000000200001f8230068
:10206400c0428800d14288001e417800c18520000a
:10207400824878000080fa00000006000400fa009c
:10208400008fbe001e01be00c2428800d3428800f9
:102094000080fa00000006000000fa005cc8bf00df
:1020a4000080fa00000006000000fa00c042800030
:1020b400d14280000080fa00000006000000fa000f
:1020c40000c8200010088800a1048000f0ff280048
:1020d4000080600000e0a000a00488008460a900e3
:1020e4008c60a8003428ef003628ef003000200070
:1020f400d041880020032000e0418800803821007e
:10210400f041880005e1a8000080fa000000060004
:102114000000fa0001fe0700d9fe070043ff070094
:102124001efd070078ff0700e4ff0700ffff3700ec
:020000040000fa
:0200000401f009
:04000000f6bf000047
:020000040000fa
:0200000401f009
:04000400c07f0000b9
:020000040000fa
:0200000401f009
:040008007cff000079
:020000040000fa
:0200000401f009
:04001400ffffff00eb
:020000040000fa
:0200000401f009
:04001800ffff0000e6
:00000001FF
