:020000040000fa
:080000000001040000000000f3
:020000040000fa
:0400080034020000be
:020000040000fa
:04000c0034020000ba
:020000040000fa
:0400100034020000b6
:020000040000fa
:0400140034020000b2
:020000040000fa
:0400180034020000ae
:020000040000fa
:04001c0034020000aa
:020000040000fa
:0400200034020000a6
:020000040000fa
:0400240034020000a2
:020000040000fa
:04002800340200009e
:020000040000fa
:04002c00340200009a
:020000040000fa
:040030003402000096
:020000040000fa
:040034003402000092
:020000040000fa
:04003800340200008e
:020000040000fa
:04003c00340200008a
:020000040000fa
:040040003402000086
:020000040000fa
:040044003402000082
:020000040000fa
:04004800340200007e
:020000040000fa
:04004c00340200007a
:020000040000fa
:040050003402000076
:020000040000fa
:040054002402000082
:020000040000fa
:04005800340200006e
:020000040000fa
:04005c00340200006a
:020000040000fa
:040060003402000066
:020000040000fa
:040064003402000062
:020000040000fa
:04006800340200005e
:020000040000fa
:04006c00340200005a
:020000040000fa
:040070003402000056
:020000040000fa
:040074003402000052
:020000040000fa
:04007800340200004e
:020000040000fa
:04007c00340200004a
:020000040000fa
:040080003402000046
:020000040000fa
:040084003402000042
:020000040000fa
:04008800fc01000077
:020000040000fa
:04008c00c8010000a7
:020000040000fa
:040090003402000036
:020000040000fa
:040094003402000032
:020000040000fa
:04009800340200002e
:020000040000fa
:04009c00340200002a
:020000040000fa
:0400a0003402000026
:020000040000fa
:0400a4003402000022
:020000040000fa
:0400a800340200001e
:020000040000fa
:0400ac00340200001a
:020000040000fa
:0400b0003402000016
:020000040000fa
:0400b4003402000012
:020000040000fa
:0400b800340200000e
:020000040000fa
:0400bc00340200000a
:020000040000fa
:0400c0003402000006
:020000040000fa
:0400c4003402000002
:020000040000fa
:0400c80034020000fe
:020000040000fa
:0400cc0034020000fa
:020000040000fa
:0400d00034020000f6
:020000040000fa
:0400d40034020000f2
:020000040000fa
:0400d80034020000ee
:020000040000fa
:0401080034020000bd
:020000040000fa
:04010c0034020000b9
:020000040000fa
:0401100034020000b5
:020000040000fa
:0401140034020000b1
:020000040000fa
:0401180034020000ad
:020000040000fa
:04011c0034020000a9
:020000040000fa
:0401200034020000a5
:020000040000fa
:0401240034020000a1
:020000040000fa
:04012800340200009d
:020000040000fa
:04012c003402000099
:020000040000fa
:040130003402000095
:020000040000fa
:040134003402000091
:020000040000fa
:04013800340200008d
:020000040000fa
:04013c003402000089
:020000040000fa
:040140003402000085
:020000040000fa
:040144003402000081
:020000040000fa
:04014800340200007d
:020000040000fa
:04014c003402000079
:020000040000fa
:040150003402000075
:020000040000fa
:040154002402000081
:020000040000fa
:04015800340200006d
:020000040000fa
:04015c003402000069
:020000040000fa
:040160003402000065
:020000040000fa
:040164003402000061
:020000040000fa
:04016800340200005d
:020000040000fa
:04016c003402000059
:020000040000fa
:040170003402000055
:020000040000fa
:040174003402000051
:020000040000fa
:04017800340200004d
:020000040000fa
:04017c003402000049
:020000040000fa
:040180003402000045
:020000040000fa
:040184003402000041
:020000040000fa
:04018800fc01000076
:020000040000fa
:04018c00c8010000a6
:020000040000fa
:040190003402000035
:020000040000fa
:040194003402000031
:020000040000fa
:04019800340200002d
:020000040000fa
:04019c003402000029
:020000040000fa
:0401a0003402000025
:020000040000fa
:0401a4003402000021
:020000040000fa
:0401a800340200001d
:020000040000fa
:0401ac003402000019
:020000040000fa
:0401b0003402000015
:020000040000fa
:0401b4003402000011
:020000040000fa
:0401b800340200000d
:020000040000fa
:0401bc003402000009
:020000040000fa
:0401c0003402000005
:020000040000fa
:0401c4003402000001
:020000040000fa
:0401c80034020000fd
:020000040000fa
:0401cc0034020000f9
:020000040000fa
:0401d00034020000f5
:020000040000fa
:0401d40034020000f1
:020000040000fa
:0401d80034020000ed
:020000040000fa
:100200006f8220000eff20000e0188000000000019
:10021000000020000000e000020032000001200089
:100220002002880014000700910007000000e00091
:1002300003003a0080c120000100200002003700c6
:100240000000200001002000810f7000010032003a
:1002500014000700000020000000e000020032004f
:1002600000000200000000008c0b020000000000f3
:100270000040da000000fe004440a9000000200019
:100280000000e0000300320000002000a001880010
:100290004440a800000006008a1f78008b1f7800e9
:1002a0000000060091018800800478000000eb0047
:1002b0001a003700e284440032a0b4009905ba0065
:1002c000e284440032a0b4009906ba00e2844400fb
:1002d00032a0b4000006eb00476fde00fd07b2005d
:1002e000636ce10003003a00ebff07000000eb0045
:1002f0000a003700606ce10004003a00005deb008a
:100300008b05e900fdff3e00040037006168e10055
:10031000010032000086eb000b00070019c7ba008d
:100320001905ba000e04e00003003a000a00e000dc
:10033000e0ff3a0000000600fe07b2009e018800c0
:100340008a047800f5ff3700395dba008b05e900b3
:100350000c003200295dba008b05e900080032006c
:100360000c00e00003003a00e284440032a0b40034
:10037000f5ff370019ddba008b05e900faff3a00f6
:100380008904e800e184440032a0b40000000600c3
:10039000809fbe000000fa008720a9002040800056
:1003a000e10f500011003a00004080000000e8001a
:1003b0000040880011408000004080000080400024
:1003c000104078000004e000070032001140800077
:1003d0000040800000804000104078000000fb00da
:1003e000d0108800010037000428ef000080fa00d8
:1003f0004f00be00004006003600f800809fbe009f
:10040000829fbe00849fbe00869fbe000000fa004f
:100410008700a900e01080000040780006e8b700df
:100420000768ef0060802000350407000080fa00b4
:100430004f03be004f02be004f01be004f00be0082
:100440003600f90000400600801f78000000fa0026
:100450008560a90000148000104188000080fa0027
:100460004f007800004006000040da000000fe0067
:100470000000050014002000bd023700f4ff2f002b
:10048000bb0237000001be003d0007000470a7005a
:1004900003f0a1006509b100160032000d0035001f
:1004a0006828e10006003500f0ff2f00f1ff27006b
:1004b0000300e00013003b000100280000000500dd
:1004c00000004000818048008502e900fcff3a00fe
:1004d00008003700f88f420002003c008000eb006b
:1004e000000005008100d1000080d3008502e800f3
:1004f000fcff3a000300e00002003b006000100037
:10050000e0801800000006000001be001c0007008b
:100510000470a70003f0a10003f8a30013003a0041
:100520006509b10010003200090035006928e100ba
:100530000200350001002800000005000000400016
:10054000818048008502e900fcff3a0000000600b7
:10055000f88f4200050035008100d1000080d300f3
:100560008502e800fcff3a00000006008000eb0076
:10057000000005004f89de008201780097023700f5
:10058000c70ade00f107b200f50fb2000800320022
:10059000e1cf4200020032000170a00024000500fb
:1005a000810f7000010032000408050044000500be
:1005b000810f700002003a00140005008502e90076
:1005c0000000400081c04800fcff3b000170a0001b
:1005d00024000500889fbe008a9fbe008c9fbe003d
:1005e0001b0020000202be000586680006002800ed
:1005f000060666004709de00f20fb20082003200f4
:100600000243e80080003200c729de00f30fb20089
:100610007d0032000343e8007b003200f107b200a6
:100620000170a000f507b2000570a000c708dd004a
:100630004903de00868070004700dd00c72add0028
:100640004923de00868272004722dd000305510047
:10065000040350008583580003003100000040006f
:10066000818048000a05e9008c1f78008a9fbe003f
:1006700004005000858058000402420085824a0030
:1006800000004000818048000005eb000004be002f
:100690006033b8000406be000d48e100560031008a
:1006a000110009004dccd8000c01b8000d02b800b3
:1006b0008481410060824a008283530003045c000d
:1006c00084845c0060055d000a00e00025003a00bb
:1006d000800578000d40e100490031008800780075
:1006e00007007800110009004d88d8000c01b800ff
:1006f0000d02b8008481410060824a00600311004d
:1007000083835b0004045c00e0845c000900e0007b
:1007100021003a004f01be000300e0002b00320030
:10072000e3016000070673008c8171000100320054
:10073000640070004200de004e5edd000c007000c0
:10074000c258de0001e0a00083010700cf0178005d
:10075000818071004f06be004f05be004f04be00f1
:10076000000006008c8343000d044c00e0844c0024
:1007700060054d000000e9000a00e000d4ff3200ef
:100780008c8343000d044c00e0844c0060054d0058
:100790000000e900ceff37000c0343008d834b00bf
:1007a00060044c00e0844c000000e9000900e00017
:1007b000d8ff32000c0343008d834b0060044c00d3
:1007c000e0844c000000e900d2ff37004200de0068
:1007d0004e5edd000c007000c258de0001e0a0009b
:1007e000cf0178000300e000daff32006000100063
:1007f000e0801800d7ff3700f0ff2f00aaff370076
:10080000f0ff2f00b9ff37000404be002f010700de
:10081000870678000004fd008104fd002b0107001d
:10082000078366000678a300030032000960a70072
:100830000800be002c0037000d78a3000200320033
:100840000800be00280037000778a30026003a0001
:1008500001f0a10009f0a1000668a3000300320026
:10086000f1ff2700f0ff2f00baff37000d68a3004b
:10087000030032000800be008c807000b5ff370016
:100880000768a30007003a000648a30003003200ef
:10089000f1ff2700f0ff2f00aeff37000d48a30047
:1008a000030032006000b8008c807000a9ff3700a0
:1008b0000748a3000400320001f8270000002000d0
:1008c0008c807000a3ff3700760107000004fd0054
:1008d0008104fd0002057800720107000802be00d5
:1008e0008a01780059ff37000160a0001202200041
:1008f0002241880097ff37000100e000120032001b
:100900000500e00010003200889fbe008a9fbe00f4
:100910008c9fbe000006eb0001f8a300030032002c
:1009200060001000e08018000cf0a00005f8a300a3
:100930000300320060021200e0821a000cf0a200f4
:100940008005eb0041ff37006000b80002000500a1
:10095000038368000700280007036300470ade00de
:100960000480a100c71ade000580a100f70f200057
:100970000720e100420032000728e1004000320079
:10098000889fbe008a9fbe008c1f7800f107b200ce
:10099000f307b2000400e000640032000170a00020
:1009a0000500e000680032000370a00085054200e9
:1009b000eb07b1000204b8000302b80084844400cd
:1009c00060854a00020ab800848444000a854a000f
:1009d000030ab80004054500040033000804d000f1
:1009e0008984d2000a85d2008b05e9006158e100b4
:1009f0003d003500021020000901610003082000bd
:100a000089816100f70720008783640008867300ee
:100a1000c84cde00c853dd00878474004855de00f2
:100a20000300e0000600320082037600040032007a
:100a30008904e80060054d000a88a3000c003a0014
:100a4000f70f20000758e10044003d000a70a100a4
:100a5000c75ddd000a8575008a0073000900780013
:100a60004f0678004f05be004f04be000000060090
:100a70000a05d1008984d3008b05e800f0ff370018
:100a8000881f7800060478009000070007027800ad
:100a90000001fd008101fd008c0007008702780045
:100aa000850372000778a300050032000001fd00f5
:100ab0008101fd009f0007004f0478000000060040
:100ac000850372000748a30003003200f0ff2f00e7
:100ad000f1ff2700f8ff37000000200001f8270091
:100ae00088807000f4ff3700880178004848dd00f6
:100af000808171004848de00c850dd0001007000b0
:100b0000c850de00060478000b01780016000700cc
:100b100088807000d2ff37000500e0000500320039
:100b2000170020003a0007009dff37008103700086
:100b3000f9ff3a00860078004f0678004f05be00a6
:100b40004f04be000000050083037100f9ff32006e
:100b5000270020002e00070094ff370001f827002f
:100b600086807000f4ff37000100e00026003200ac
:100b7000610111007810e10023003c006022b80000
:100b80007010e10004003500800278000100780058
:100b90008000eb00700151000200e0000900340009
:100ba00070031100062add00822ade008603dd00c4
:100bb000878272000200de00860bdd0007007000f5
:100bc0008208de0084817100f4ff27000482620045
:100bd0008481710004002800848262006102600048
:100be00005f0a60000000600048271000700320034
:100bf0000000e800e0804800000006000002be009f
:100c00006000b800efff37006000b8000000060089
:100c1000889fbe000004eb006138e10016003a0036
:100c20000100e00008003a00c800de004800dd00d6
:100c3000880020000100e00003003a00c800de0048
:100c40004800dd00680444008184cf00e98454003a
:100c5000060034008908dd00f08314008703de00fd
:100c6000878070000900dd0009044400610214005f
:100c70004f04be00000006000300e00008003a0038
:100c8000c811de004811dd00880020000300e000ec
:100c900003003a00c811de004811dd00680444007a
:100ca0008384cf00e9845400060034008919dd00f4
:100cb000f08314008713de00878171000911dd00c5
:100cc00009044400e1021400e9ff37002700200076
:100cd00001f0a70017002000470bde00f60fb2005e
:100ce000040032000643e8000a0032004702b30065
:100cf0000000060001037800f607b200060370004a
:100d000002003a000703b300000006008702b300a8
:100d10000000060001037800f607b2000603700029
:100d2000020032000770a000000006000760a0006b
:100d3000000006000478a300040032000578a30038
:100d4000030032000168a30001003a000200be0067
:100d50000160a00000000600810170002700320041
:100d60008002eb0001f8a3000300320060001000d5
:100d7000e080180015002000f40720000202420065
:100d800020003400f70320008703600006042000e1
:100d90000003630002082000000161004700de003c
:100da000c909dd0000807100c708de000600e00010
:100db0000800320087037100060032001000b00006
:100dc0000180b0000188a30002003200c108de00eb
:100dd0000402e800f107b200f30f20000320e10055
:100de00003003d004722dd0081007200290037002a
:100df00001f827000000eb00260037006000b80073
:100e000000000600680212007f20e10002003400aa
:100e10006000b8001f0037006011b8007020e100ca
:100e20000400350080017800010078008000eb00ac
:100e3000700252000400e00009003400f0031200c8
:100e40000719dd008419de000703dd0086817100cb
:100e50000400de00070bdd00060070008408de00e1
:100e6000f7ff2700838363008703710006002800d3
:100e700003036300070032000700e00003003a00ac
:100e80006101600002817300020032001000b000b6
:100e90000180b0000500a6000000060001f0a000df
:100ea000000006004f0ade004709de00f107b2002d
:100eb000f20fb2000b003200f207b1000170a00087
:100ec000c708dd00c901de00838070004700dd0037
:100ed0000400a6000000060060001000e08018007a
:100ee00000000600810f700001003a0000000600bb
:100ef0008182cf000500e00010003e008082cf001c
:100f0000ee8242007028e1000400390007003e0034
:100f1000800078000000eb000e00370070831200a4
:100f20008600de000500dd000a00370070835200f5
:100f30008600dd000000eb0006003700e282520070
:100f40008508dd00708312000603de0086807000d5
:100f50000500dd007507b0000501ea000400a600e9
:100f60000000060060001000e0801800000006008d
:100f7000889fbe008a9fbe00841f78007c00070007
:100f80004f00780011003300f0ff2f00838f6c00ba
:100f900006003b00040565000a00a70008003700b2
:100fa00009f0a6001000200008003700820f54004e
:100fb000838f5c00030039001000200001003e0018
:100fc0000000200009f0a7000000ea004f05be0065
:100fd0004f04be000000e00000000600881f7800fb
:100fe000030478000300e00007003d0060001000eb
:100ff000e080180060011900e081190002003b0048
:1010000001f02d00030037000400070008f0a700de
:1010100001f0a0004f04780000000600889fbe0089
:101020008a9fbe0000827000040271000482710079
:10103000260032000004be000200be006011b800ad
:101040006b092000950220000182cf000a003900c0
:101050000541b1000082cf00070039000541b10011
:101060000982cf00040039000541b1000882cf0099
:10107000010039000541b100054252001200320062
:101080000a003b0082817100610164008100d1008f
:101090000080d3008984d3000884d3008b05e80046
:1010a0000442e800f7ff3a00070037000804440054
:1010b00089844c0000004800818048008b05e900cd
:1010c0000442e900f9ff3a00030007004f05be00a3
:1010d0004f04be0000000600810020006180550022
:1010e0000b003d000b00200061fe2f000100e1001d
:1010f0001d00340082817100610164008904d10007
:101100000884d3000000e800faff3a0071002000d4
:1011100061006400030070000200600009003200fa
:1011200061044400e0844c000988a50005003200f9
:101130008b05e8006808e10002003a008904d1004c
:101140000884d300f20f20000258e10005003d00a2
:10115000c75ddd00f907b2008980750008007800de
:10116000000006000bf827008b0078000000050047
:101170000004be0002fd07000003be000405be001f
:101180000200be00fefc0700844f75000000060050
:020000040000fa
:101190000000fa0000ec2f00c016880000102000ac
:1011a000d0168800f00f2000400e8800c021ef000c
:1011b00090192000200e8800e0408000f14080005f
:1011c000020020000311240002fd07000200280095
:1011d000c33c2400defd0700cbfc070000007800c4
:1011e000b00e8800e0408000f14080000200200046
:1011f00003112400f7fc070002002800c33c240070
:10120000d3fd0700c0fc070000007800c00e880076
:10121000e0408000f1408000020020000311240023
:10122000ecfc070002002800c33c2400c8fd0700b6
:10123000b5fc070000007800d00e8800c221ef0046
:10124000c1e1a8000080fa00000006000600fa00d4
:10125000004f78000e80e800010878006400470025
:101260000208780060c7b3009e40780080cf50002d
:101270004e003a000e80e80010007800cf80de00bb
:10128000bcfc07000200200003112400d1fc070071
:1012900002002800c33c2400adfd07009afc0700b3
:1012a00000007800b00e88000e80e8001000780082
:1012b000cf80de00affc07000200200003112400f5
:1012c000c4fc070002002800c33c2400a0fd070066
:1012d0008dfc070000007800c00e88000e80e8003a
:1012e00010007800cf80de00a2fc07000200200082
:1012f00003112400b7fc070002002800c33c2400af
:1013000093fd070080fc070000007800d00e8800e5
:101310006400470010007800e30f50001400320012
:10132000e30f500005003c00e10f50000a003200be
:10133000e20f50000b0032001a003700e50f50009a
:1013400011003200e50f50000c003500e60f500090
:10135000100032001300370000212000a00e88008a
:101360006200370010802000a00e88005f00370068
:1013700000812000a00e88005c00370040002200a1
:10138000a00e88005900370040202000a00e8800e1
:101390005600370010002200a00e88000000000058
:1013a00052003700d421ef005000370020c7b300af
:1013b0009e40780080cf50004c003a000e80e8003c
:1013c00010007800cf80de006afc070002002000d9
:1013d000031124007ffc070002002800c33c240006
:1013e0005bfd070048fc070000007800b00e880095
:1013f0000e80e80010007800cf80de005dfc070062
:10140000020020000311240072fc070002002800e3
:10141000c33c24004efd07003bfc070000007800a1
:10142000c00e88000e80e80010007800cf80de003b
:1014300050fc0700020020000311240065fc070097
:1014400002002800c33c240041fd07002efc0700d9
:1014500000007800d00e880064004700100078007b
:10146000e30f500016003200e30f500005003c006f
:10147000e10f500018003200e20f5000130032005c
:1014800018003700e50f500007003200e50f50004c
:1014900008003500e60f500012003a00002120003d
:1014a000a00e88001100370010802000a00e8800d8
:1014b0000e00370000812000a00e88000b003700ce
:1014c00040002200a00e88000800370040202000c5
:1014d000a00e88000500370010002200a00e880032
:1014e00002003700d421ef00000000000080fa0065
:1014f000000006000000fa000080fa00000006006c
:101500000200fa00881f7800000f78009e00780023
:1015100051408800504080009040780060c7b30080
:1015200080cf50000500320050408000904078008d
:1015300020c7b30080cf500004003a005040800024
:10154000104078009b0007002000370050408000ca
:10155000104078000000fb000003b100cf80de00e7
:1015600004fc0700604088007140880060408000f3
:101570007140800018c0b3006011b800bffb0700c5
:101580000000e00001003d000044eb000804e00022
:101590000e003200604080007140800018c0b3002f
:1015a0000200200003112400b2fb07000000e0004d
:1015b000010034000044eb000804e00003003200a6
:1015c0006040800071408000890007004f0478006f
:1015d0000080fa00000006000000fa00b110800050
:1015e00090ff2f0000806000b01088001602a80055
:1015f00000418000f010880017e2a8001942a800fe
:101600008720a9008700a9008f20a9008f00a800cb
:10161000c1108000f0f32f00008060000060a00087
:10162000c0108800114080000040eb008048780026
:1016300060c7b30006e8b7000768ef000080fa0053
:10164000000006000200fa00000f78009e007800fb
:10165000114088000028ef00100020002040880082
:1016600010408000104078000000fb00d01088007f
:101670000080fa00000006000000fa00c00320000d
:1016800030168800b0ff2f0040158800311580000b
:1016900000ff2f00008060000010a00030158800bf
:1016a00021158000f00f2e00008060000080a00057
:1016b000201588002115800000fc2f0000806000ac
:1016c0000010a000201588001115800030fc2f00ac
:1016d000008060000020a00010158800a042a80033
:1016e00001158000000e2000010070000015880028
:1016f000a1e2a8000080fa00000006000000fa0045
:101700004116800080032000008060004300de005e
:101710000080fa00000006000000fa00889fbe006a
:101720009bfe0700d4ff0700abff070071ff070017
:1017300000148000804088008040800001148000f8
:10174000810f500011003200904080000000e00046
:1017500008003a000000280020088800904080001f
:101760000000e8009040880000148000804088005d
:101770000600370090408000e10f500003003a005f
:1017800000088000a04088000421ef00dbff070074
:1017900080047800210007003afb0700000478006d
:1017a0001a0007000901780088007800a7fe0700ea
:1017b000e1ff37000200fa00004f78001ac8bf00ae
:1017c0009e40780080cf50000700320000002000cb
:1017d00001f82300b0408800c14088001e41780015
:1017e000a1812000824878000080fa0000000600f5
:1017f0000400fa00008fbe001e01be00b240880047
:10180000c34088000080fa00000006000000fa00d3
:101810001ac8bf000080fa00000006000000fa00ad
:10182000b0408000c14080000080fa000000060047
:020000040000fa
:101830001008000006000000000000002008000062
:101840000200000002000000670000000008000025
:101850000800000000000000220800000200000054
:10186000000000001c08000004000000020000004e
:10187000000080003f000000160800000600000085
:1018800002000000000080003f7600000808000011
:101890000800000000000000240800000200000012
:0818a000000000000000000040
:020000040000fa
:0200000401f009
:04000000f6bf000047
:020000040000fa
:0200000401f009
:04000400c07f0000b9
:020000040000fa
:0200000401f009
:040008007cff000079
:020000040000fa
:0200000401f009
:04001400ffffff00eb
:020000040000fa
:0200000401f009
:04001800ffff0000e6
:00000001FF
