:020000040000fa
:080000000001040000000000f3
:020000040000fa
:04000800fe030000f3
:020000040000fa
:04000c00fe030000ef
:020000040000fa
:04001000fe030000eb
:020000040000fa
:04001400fe030000e7
:020000040000fa
:04001800fe030000e3
:020000040000fa
:04001c00fe030000df
:020000040000fa
:04002000fe030000db
:020000040000fa
:04002400fe030000d7
:020000040000fa
:04002800fe030000d3
:020000040000fa
:04002c00fe030000cf
:020000040000fa
:04003000fe030000cb
:020000040000fa
:0400340022030000a3
:020000040000fa
:04003800fe030000c3
:020000040000fa
:04003c00fe030000bf
:020000040000fa
:04004000fe030000bb
:020000040000fa
:0400440006030000af
:020000040000fa
:04004800fe030000b3
:020000040000fa
:04004c00fe030000af
:020000040000fa
:04005000fe030000ab
:020000040000fa
:040054007403000031
:020000040000fa
:04005800fe030000a3
:020000040000fa
:04005c00fe0300009f
:020000040000fa
:04006000fe0300009b
:020000040000fa
:040064002402000072
:020000040000fa
:04006800fe03000093
:020000040000fa
:04006c00fe0300008f
:020000040000fa
:04007000fe0300008b
:020000040000fa
:04007400fe03000087
:020000040000fa
:04007800fe03000083
:020000040000fa
:04007c00fe0300007f
:020000040000fa
:04008000fe0300007b
:020000040000fa
:04008400fe03000077
:020000040000fa
:04008800fc01000077
:020000040000fa
:04008c00c8010000a7
:020000040000fa
:04009000fe0300006b
:020000040000fa
:04009400fe03000067
:020000040000fa
:04009800fe03000063
:020000040000fa
:04009c00fe0300005f
:020000040000fa
:0400a000fe0300005b
:020000040000fa
:0400a400fe03000057
:020000040000fa
:0400a800fe03000053
:020000040000fa
:0400ac00fe0300004f
:020000040000fa
:0400b000fe0300004b
:020000040000fa
:0400b400fe03000047
:020000040000fa
:0400b800fe03000043
:020000040000fa
:0400bc00fe0300003f
:020000040000fa
:0400c000fe0300003b
:020000040000fa
:0400c400fe03000037
:020000040000fa
:0400c800fe03000033
:020000040000fa
:0400cc00fe0300002f
:020000040000fa
:0400d000fe0300002b
:020000040000fa
:0400d400fe03000027
:020000040000fa
:0400d800fe03000023
:020000040000fa
:04010800fe030000f2
:020000040000fa
:04010c00fe030000ee
:020000040000fa
:04011000fe030000ea
:020000040000fa
:04011400fe030000e6
:020000040000fa
:04011800fe030000e2
:020000040000fa
:04011c00fe030000de
:020000040000fa
:04012000fe030000da
:020000040000fa
:04012400fe030000d6
:020000040000fa
:04012800fe030000d2
:020000040000fa
:04012c00fe030000ce
:020000040000fa
:04013000fe030000ca
:020000040000fa
:0401340022030000a2
:020000040000fa
:04013800fe030000c2
:020000040000fa
:04013c00fe030000be
:020000040000fa
:04014000fe030000ba
:020000040000fa
:0401440006030000ae
:020000040000fa
:04014800fe030000b2
:020000040000fa
:04014c00fe030000ae
:020000040000fa
:04015000fe030000aa
:020000040000fa
:040154007403000030
:020000040000fa
:04015800fe030000a2
:020000040000fa
:04015c00fe0300009e
:020000040000fa
:04016000fe0300009a
:020000040000fa
:040164002402000071
:020000040000fa
:04016800fe03000092
:020000040000fa
:04016c00fe0300008e
:020000040000fa
:04017000fe0300008a
:020000040000fa
:04017400fe03000086
:020000040000fa
:04017800fe03000082
:020000040000fa
:04017c00fe0300007e
:020000040000fa
:04018000fe0300007a
:020000040000fa
:04018400fe03000076
:020000040000fa
:04018800fc01000076
:020000040000fa
:04018c00c8010000a6
:020000040000fa
:04019000fe0300006a
:020000040000fa
:04019400fe03000066
:020000040000fa
:04019800fe03000062
:020000040000fa
:04019c00fe0300005e
:020000040000fa
:0401a000fe0300005a
:020000040000fa
:0401a400fe03000056
:020000040000fa
:0401a800fe03000052
:020000040000fa
:0401ac00fe0300004e
:020000040000fa
:0401b000fe0300004a
:020000040000fa
:0401b400fe03000046
:020000040000fa
:0401b800fe03000042
:020000040000fa
:0401bc00fe0300003e
:020000040000fa
:0401c000fe0300003a
:020000040000fa
:0401c400fe03000036
:020000040000fa
:0401c800fe03000032
:020000040000fa
:0401cc00fe0300002e
:020000040000fa
:0401d000fe0300002a
:020000040000fa
:0401d400fe03000026
:020000040000fa
:0401d800fe03000022
:020000040000fa
:100200008f9620000eff20000e01880000000000e5
:10021000000020000000e000020032000001200089
:100220002002880014000700760107000000e000ab
:1002300003003a0040552100010020000200370071
:100240000000200001002000810f7000010032003a
:1002500014000700000020000000e000020032004f
:100260000000020000000000c415020000000000b1
:100270000040da000000fe004440a9000000200019
:100280000000e0000300320000002000a001880010
:100290004440a800000006008a1f78008b1f7800e9
:1002a0000000060091018800800478000000eb0047
:1002b0001a003700e284440032a0b4009905ba0065
:1002c000e284440032a0b4009906ba00e2844400fb
:1002d00032a0b4000006eb00476fde00fd07b2005d
:1002e000636ce10003003a00ebff07000000eb0045
:1002f0000a003700606ce10004003a00005deb008a
:100300008b05e900fdff3e00040037006168e10055
:10031000010032000086eb000b00070019c7ba008d
:100320001905ba000e04e00003003a000a00e000dc
:10033000e0ff3a0000000600fe07b2009e018800c0
:100340008a047800f5ff3700395dba008b05e900b3
:100350000c003200295dba008b05e900080032006c
:100360000c00e00003003a00e284440032a0b40034
:10037000f5ff370019ddba008b05e900faff3a00f6
:100380008904e800e184440032a0b40000000600c3
:10039000809fbe000000fa008720a90080438000f3
:1003a000e10f500011003a00604380000000e800b7
:1003b00060438800714380006043800000804000fb
:1003c000104078000004e000070032007143800014
:1003d0006043800000804000104078000000fb0077
:1003e000d0108800010037007028ef000080fa006c
:1003f0004f00be00004006003600f800809fbe009f
:10040000829fbe00849fbe00869fbe000000fa004f
:100410008700a900e01080000040780072e8b70073
:100420007368ef0020872000780607000080fa003c
:100430004f03be004f02be004f01be004f00be0082
:100440003600f900004006003600f800809fbe002c
:10045000829fbe00849fbe00869fbe000000fa00ff
:1004600085e0a900104780000000e0001100320084
:100470000821ef000621ef0090042000700888009a
:1004800000e02300600888003d0807000000e90044
:100490008000400060912000008040001000780043
:1004a000c0468800c0468000d0468800e228ef00a1
:1004b0004f003700300880008000eb0020478800a4
:1004c00031478800400880008000eb001048880019
:1004d000214888001048800021488000c001dd00cc
:1004e00002002000204780003147800002004000c9
:1004f0008380480020478800314788000821ef00aa
:100500000621ef0020478000314780004b0807009c
:10051000504888006148880000488000e50f50007e
:1005200004003c00004880000000e800004888000b
:100530000200370010002000004788001008070064
:100540000000e90080004000609120000080400031
:1005500010007800c0468800c1468000d046800068
:1005600000805000e0468800e14680001000200036
:100570000100e000010034000000eb00f0468800bc
:10058000c0468000d0468800504880006148800006
:1005900000004000818048003048880041488800c1
:1005a000324880004348800000a0260081012000de
:1005b000800f5100818f59000400360000a02600f2
:1005c0008101200030488800414888003048800080
:1005d000414880004008de00000078007008880074
:1005e00030488000414880000000780060088800a2
:1005f0000080fa004f03be004f02be004f01be0054
:100600004f00be003600f90000400600809fbe008b
:100610000000fa0084e0a9000080eb008080eb007d
:100620005048880061488800e028ef001000200052
:10063000104788000029ef000080fa004f00be003c
:10064000004006003600f800809fbe00829fbe007a
:10065000849fbe00869fbe000000fa008460a9004f
:10066000804a80000000e800804a8800904a8000ac
:100670000000e800904a8800a04a80000000e800de
:10068000a04a8800814a8000b04a8000808f5000d4
:1006900003003a005029ef0050070700bc04070090
:1006a000914a8000c04a8000808f500001003a00cb
:1006b0005229ef00a14a8000d04a8000808f50006c
:1006c00002003a005429ef00330607000080fa00c8
:1006d0004f03be004f02be004f01be004f00be00e0
:1006e0003600f900004006003600f800809fbe008a
:1006f000829fbe00849fbe00869fbe000200fa005b
:100700008560a900111580000008200000806000ad
:100710000000e0000300320000282000904988001b
:100720000200370000292000904988002829ef00a6
:100730002c29ef003029ef000000eb00000f7800bb
:100740001e00370090498000900078000080e8008b
:1007500090498800c0932000190807006149800073
:100760000100400060498800904980001001780035
:100770008149800081004100814988000080e800b3
:1007800090498800904980000080e80090498800e6
:100790009049800090007800c308dd000080e800e8
:1007a00090498800609320000508070041498000b7
:1007b00001004000404988001e0fe8001e0078003c
:1007c000e10f5000dfff34004149800020052e007a
:1007d000008040003049880060498000504988000e
:1007e0000080fa004f03be004f02be004f01be0062
:1007f0004f00be003600f900004006000040da005d
:100800000000fe0000000500140020009a033700dd
:10081000f4ff2f00980337000001be001c00070002
:100820000470a70003f0a10003f8a30013003a002e
:100830006509b10010003200090035006928e100a7
:100840000200350001002800000005000000400003
:10085000818048008502e900fcff3a0000000600a4
:10086000f88f4200050035008100d1000080d300e0
:100870008502e800fcff3a00000006008000eb0063
:10088000000005004f89de008201780095033700e3
:10089000c70ade00f107b200f50fb200080032000f
:1008a000e1cf4200020032000170a00024000500e8
:1008b000810f7000010032000408050044000500ab
:1008c000810f700002003a00140005008502e90063
:1008d0000000400081c04800fcff3b000170a00008
:1008e000240005006022b800060220000000d000ad
:1008f0008180d2000482d2008582d2000000a00054
:100900000202520083825a000300310002024200b8
:1009100083824a000000a1000603e900f3ff3a00c9
:100920000000060007f82700078361000638e10091
:1009300004003a00f70720008783610087037100f5
:1009400001003a0003f0a200889fbe008a9fbe000b
:100950008c9fbe00470ade000480a100c71ade009b
:100960000580a100070028000785600087856100d9
:10097000f70f20000720e1009e0032000728e10069
:100980009c003200010678000400e000b400320050
:10099000f7072000878060000170a0000500e000dc
:1009a000c0003200f7072000878161000370a000bb
:1009b000050652000f003a000b50e1000b00320018
:1009c0000308e10002003a000200e1007e0032006c
:1009d0000204500083845800040031000001fd002f
:1009e0008101fd008402fd008a05fd006044b8001d
:1009f000210037000520e10005003d000001fd0059
:100a00008101fd008402fd008a05fd0005065200fb
:100a10007a60e100050035000170a1004722dd0089
:100a2000848070008a807000630037006044b800e2
:100a3000ef02660007ff2f00070666000500e000d2
:100a400006003400f08312008714dd000511de007b
:100a5000071bdd00060171008519de007060e100f2
:100a6000050035000904780082047800030178004d
:100a70008001eb00700656000b50e10003003a00c5
:100a80000200400083804800040037006004140026
:100a9000e0841c0002005800838058000188a300f5
:100aa000060032008100d1000080d3008984d30089
:100ab0000884d3000402e800270037000178a3006f
:100ac00025003a000100e000030032008186cf00db
:100ad000698656000a0037008c0020000000e00004
:100ae00004003a0009007800880478000004eb0054
:100af000700252008086cf000d0646000c06e90009
:100b00007060e10006003500800078000900780080
:100b1000880478000004eb00700656007002520052
:100b20000c00e0000c0034008c08dd00f00316001f
:100b30000703de00868070000c00dd00074bde003e
:100b4000060070008c4cdd000743de0086847400d4
:100b50000c44dd000c0252006120e1002000350051
:100b6000610160000700280087816400f7ff27000b
:100b700087836400070374000300e000060032006e
:100b800082037300040032000000e800e0804800a7
:100b90000188a3000e003a00f70f20000720e100b3
:100ba0004a003d000170a1004722dd008100720073
:100bb0008a8070000000be004f06be004f05be00d8
:100bc0004f04be00000006006000b800faff3700c6
:100bd0008100d1000080d3000402e800eeff37005e
:100be0000401780089017400a10107008a80700067
:100bf000f1ff3700f7010700070278000001fd0050
:100c00008101fd00f301070087027800850372006f
:100c10000778a300040032000001fd008101fd00ff
:100c200006020700e4ff3700850362000768a3009f
:100c3000080032000b50e10003003200f0ff2f00eb
:100c4000f1ff2700dcff37000001fd008101fd00fe
:100c5000d9ff37000468a300d7ff3200faff37003e
:100c6000f8ff2700888360000b003a000000e000d6
:100c700009003a008303640082837300020032009b
:100c80000200be00ccff37000b50e100ceff3a005f
:100c90000200be00c8ff370014002000810064007d
:100ca0003eff3700f8ff27008883610004003a0008
:100cb0000200e00002003a008c007800beff37001e
:100cc000150020008301640039ff370001f8270078
:100cd0000000200081007500b7ff3700889fbe002c
:100ce0008a9fbe008c9fbe001b0020000202be0037
:100cf0000586680006002800060666004709de0033
:100d0000f20fb200820032000243e800800032009d
:100d1000c729de00f30fb2007d0032000343e80074
:100d20007b003200f107b2000170a000f507b200ad
:100d30000570a000c708dd004903de008680700052
:100d40004700dd00c72add004923de0086827200ed
:100d50004722dd000305510004035000858358003d
:100d60000300310000004000818048000a05e900ce
:100d70008c1f78008a9fbe000400500085805800b8
:100d80000402420085824a00000040008180480041
:100d90000005eb000004be006033b8000406be008e
:100da0000d48e10056003100110009004dccd8007b
:100db0000c01b8000d02b8008481410060824a0035
:100dc0008283530003045c0084845c0060055d0042
:100dd0000a00e00025003a00800578000d40e1009f
:100de00049003100880078000700780011000900f0
:100df0004d88d8000c01b8000d02b8008481410074
:100e000060824a006003110083835b0004045c007d
:100e1000e0845c000900e00021003a004f01be00c0
:100e20000300e0002b003200e301600007067300be
:100e30008c81710001003200640070004200de000d
:100e40004e5edd000c007000c258de0001e0a00024
:100e500083010700cf017800818071004f06be003a
:100e60004f05be004f04be00000006008c83430007
:100e70000d044c00e0844c0060054d000000e900ca
:100e80000a00e000d4ff32008c8343000d044c00c4
:100e9000e0844c0060054d000000e900ceff370003
:100ea0000c0343008d834b0060044c00e0844c0035
:100eb0000000e9000900e000d8ff32000c03430005
:100ec0008d834b0060044c00e0844c000000e9007e
:100ed000d2ff37004200de004e5edd000c007000e5
:100ee000c258de0001e0a000cf0178000300e0005e
:100ef000daff320060001000e0801800d7ff3700f2
:100f0000f0ff2f00aaff3700f0ff2f00b9ff3700d6
:100f10000404be002f010700870678000004fd00ce
:100f20008104fd002b010700078366000678a300fb
:100f3000030032000960a7000800be002c00370043
:100f40000d78a300020032000800be002800370020
:100f50000778a30026003a0001f0a10009f0a100e3
:100f60000668a30003003200f1ff2700f0ff2f0006
:100f7000baff37000d68a300030032000800be006e
:100f80008c807000b5ff37000768a30007003a00a7
:100f90000648a30003003200f1ff2700f0ff2f00f6
:100fa000aeff37000d48a300030032006000b80018
:100fb0008c807000a9ff37000748a30004003200ae
:100fc00001f82700000020008c807000a3ff37008c
:100fd000760107000004fd008104fd000205780091
:100fe000720107000802be008a01780059ff37002d
:100ff0000160a00012022000324b880097ff3700ea
:101000000100e000120032000500e0001000320094
:10101000889fbe008a9fbe008c9fbe000006eb002a
:1010200001f8a3000300320060001000e080180007
:101030000cf0a00005f8a3000300320060021200cb
:10104000e0821a000cf0a2008005eb0041ff37009f
:101050006000b80002000500038368000700280054
:1010600007036300470ade000480a100c71ade0000
:101070000580a100f70f20000720e10042003200a8
:101080000728e10040003200889fbe008a9fbe0012
:101090008c1f7800f107b200f307b2000400e000f3
:1010a000640032000170a0000500e000680032001a
:1010b0000370a00085054200eb07b1000204b800f0
:1010c0000302b8008484440060854a00020ab80024
:1010d000848444000a854a00030ab80004054500d8
:1010e000040033000804d0008984d2000a85d200ad
:1010f0008b05e9006158e1003d0035000210200039
:10110000090161000308200089816100f7072000c0
:101110008783640008867300c84cde00c853dd0076
:10112000878474004855de000300e00006003200aa
:1011300082037600040032008904e80060054d0057
:101140000a88a3000c003a00f70f20000758e100be
:1011500044003d000a70a100c75ddd000a857500ee
:101160008a007300090078004f0678004f05be0022
:101170004f04be00000006000a05d1008984d30098
:101180008b05e800f0ff3700881f78000604780020
:1011900090000700070278000001fd008101fd00ba
:1011a0008c00070087027800850372000778a3008f
:1011b000050032000001fd008101fd009f000700d5
:1011c0004f04780000000600850372000748a30062
:1011d00003003200f0ff2f00f1ff2700f8ff370077
:1011e0000000200001f8270088807000f4ff37001d
:1011f000880178004848dd00808171004848de00a1
:10120000c850dd0001007000c850de000604780000
:101210000b0178001600070088807000d2ff3700ad
:101220000500e00005003200170020003a0007002a
:101230009dff370081037000f9ff3a0086007800b7
:101240004f0678004f05be004f04be0000000500a9
:1012500083037100f9ff3200270020002e000700f1
:1012600094ff370001f8270086807000f4ff3700f4
:101270000100e00026003200610111007810e10059
:1012800023003c006022b8007010e100040035002b
:1012900080027800010078008000eb0070015100ae
:1012a0000200e0000900340070031100062add008e
:1012b000822ade008603dd00878272000200de00e3
:1012c000860bdd00070070008208de00848171005b
:1012d000f4ff27000482620084817100040028006a
:1012e000848262006102600005f0a6000000060032
:1012f00004827100070032000000e800e08048002e
:10130000000006000002be006000b800efff3700da
:101310006000b80000000600889fbe000004eb00db
:101320006138e10016003a000100e00008003a00d0
:10133000c800de004800dd00880020000100e00059
:1013400003003a00c800de004800dd0068044400e5
:101350008184cf00e9845400060034008908dd0050
:10136000f08314008703de00878070000900dd0031
:1013700009044400610214004f04be00000006008e
:101380000300e00008003a00c811de004811dd004b
:10139000880020000300e00003003a00c811de00ce
:1013a0004811dd00680444008384cf00e9845400c0
:1013b000060034008919dd00f08314008713de0075
:1013c000878171000911dd0009044400e102140065
:1013d000e9ff37002700200001f0a70017002000d8
:1013e000470bde00f60fb200040032000643e800af
:1013f0000a0032004702b300000006000103780033
:10140000f607b2000603700002003a000703b300bb
:10141000000006008702b300000006000103780008
:10142000f607b20006037000020032000770a00049
:10143000000006000760a000000006000478a3007a
:10144000040032000578a300030032000168a30005
:1014500001003a000200be000160a000000006008a
:1014600081017000270032008002eb0001f8a30028
:101470000300320060001000e0801800150020001a
:10148000f40720000202420020003400f70320008d
:1014900087036000060420000003630002082000a8
:1014a000000161004700de00c909dd000080710015
:1014b000c708de000600e000080032008703710064
:1014c000060032001000b0000180b0000188a300c7
:1014d00002003200c108de000402e800f107b20099
:1014e000f30f20000320e10003003d004722dd0050
:1014f000810072002900370001f827000000eb008e
:10150000260037006000b8000000060068021200e4
:101510007f20e100020034006000b8001f003700a7
:101520006011b8007020e1000400350080017800ef
:10153000010078008000eb00700252000400e0001f
:1015400009003400f00312000719dd008419de00e1
:101550000703dd00868171000400de00070bdd005b
:10156000060070008408de00f7ff27008383630015
:1015700087037100060028000303630007003200a0
:101580000700e00003003a0061016000028173007f
:10159000020032001000b0000180b0000500a6007b
:1015a0000000060001f0a000000006004f0ade0067
:1015b0004709de00f107b200f20fb2000b00320063
:1015c000f207b1000170a000c708dd00c901de000c
:1015d000838070004700dd000400a60000000600c4
:1015e00060001000e080180000000600810f70000d
:1015f00001003a00000006008182cf000500e000f3
:1016000010003e008082cf00ee8242007028e10090
:101610000400390007003e00800078000000eb0065
:101620000e003700708312008600de000500dd002a
:101630000a003700708352008600dd000000eb00d6
:1016400006003700e28252008508dd007083120038
:101650000603de00868070000500dd007507b0001f
:101660000501ea000400a60000000600600010006a
:10167000e080180000000600889fbe008a9fbe0020
:10168000841f78007c0007004f00780011003300b1
:10169000f0ff2f00838f6c0006003b0004056500ff
:1016a0000a00a7000800370009f0a600100020007b
:1016b00008003700820f5400838f5c00030039005c
:1016c0001000200001003e000000200009f0a700eb
:1016d0000000ea004f05be004f04be000000e0001d
:1016e00000000600881f7800030478000300e00073
:1016f00007003d0060001000e08018006001190044
:10170000e081190002003b0001f02d0003003700ca
:101710000400070008f0a70001f0a0004f047800c3
:1017200000000600889fbe008a9fbe0000827000f5
:101730000402710004827100260032000004be0021
:101740000200be006011b8006b0920009502200065
:101750000182cf000a0039000541b1000082cf00ac
:10176000070039000541b1000982cf0004003900ab
:101770000541b1000882cf00010039000541b100e8
:1017800005425200120032000a003b0082817100c3
:10179000610164008100d1000080d3008984d300fe
:1017a0000884d3008b05e8000442e800f7ff3a0004
:1017b000070037000804440089844c0000004800fa
:1017c000818048008b05e9000442e900f9ff3a00f6
:1017d000030007004f05be004f04be0000000600d6
:1017e00081002000618055000b003d000b002000af
:1017f00061fe2f000100e1001d00340082817100b4
:10180000610164008904d1000884d3000000e8006d
:10181000faff3a00710020006100640003007000cc
:10182000020060000900320061044400e0844c00c2
:101830000988a500050032008b05e8006808e10072
:1018400002003a008904d1000884d300f20f20007e
:101850000258e10005003d00c75ddd00f907b20058
:101860008980750008007800000006000bf827004a
:101870008b007800000005000004be0004fc070097
:101880000003be000405be000200be0000fc07000d
:08189000844f75000000060002
:020000040000fa
:101898000000fa0000ec2f00c0168800001020009d
:1018a800d0168800f00f2000400e8800c021ef00fd
:1018b800610e8000f0f32f0000806000600e880049
:1018c800610e800000fc2f0000806000a000b300c3
:1018d800600e8800f0312000200e8800604a8000e9
:1018e800714a80000200200003112400f9fc07005f
:1018f8000001be0012fc070002002c007344240003
:10190800d3fd0700c2fb070000007800b00e880076
:10191800604a8000714a8000020020000311240000
:10192800ecfc07000001be0005fc070002002c00cb
:1019380073442400c6fd0700b5fb070000007800cb
:10194800c00e8800604a8000714a800002002000b2
:1019580003112400dffc07000001be00f8fb0700ac
:1019680002002c0073442400b9fd0700a8fb0700ff
:1019780000007800d00e8800c221ef00c1e1a80065
:101988000080fa00000006000000fa0025030700a6
:101998000040780044e9b70038040700304a88005e
:1019a800414a880017030700504a88003804070096
:1019b80045e9b700304a8000414a80000200200013
:1019c80003112400c3fc07000001be00dcfb070074
:1019d80002002c00734424009dfd07008cfb0700c7
:1019e80000007800b00e8800304a8000414a80002c
:1019f8000200200003112400b6fc07000001be000d
:101a0800cffb070002002c007344240090fd070060
:101a18007ffb070000007800c00e8800304a800075
:101a2800414a80000200200003112400a9fc07009d
:101a38000001be00c2fb070002002c007344240012
:101a480083fd070072fb070000007800d00e8800b5
:101a5800f00207000000e0009100320044c9bf0016
:101a68000004e00005003a00514a800090e320009d
:101a780000804000504a88000700370044c9bf0072
:101a8800e14f500004003a00514a800020c721006d
:101a980000804000504a8800204b80000000e00091
:101aa80040003200504a80000000e0000700350086
:101ab800514a8000a0aa2200808f500003003c00f9
:101ac80040302000a00e880035003700514a8000c1
:101ad800a0aa2200808f500007003400514a8000dd
:101ae80040552500808f500003003c004000230033
:101af800a00e88002a003700514a80004055250072
:101b0800808f500006003400504a80000000e0003a
:101b18000300350010002300a00e880020003700c5
:101b2800504a80000000e00008003d00504a800054
:101b380080007800a0aa2a00808f500003003e0091
:101b480010c02000a00e880015003700504a800001
:101b580080007800a0aa2a00808f50000800360074
:101b6800504a80008000780040552d00808f50003a
:101b780003003e0000c12000a00e880008003700c6
:101b8800504a80008000780040552d00808f50001a
:101b98009400360000312000a00e88009400370021
:101ba80093003700504a80000000e000070035002d
:101bb800514a8000a0aa2200808f500003003c00f8
:101bc80010c02000a00e880089003700514a80000c
:101bd800a0aa2200808f500007003400514a8000dc
:101be80040552500808f500003003c0000c12000b4
:101bf800a00e88007e003700514a8000405525001d
:101c0800808f500006003400504a80000000e00039
:101c18000300350000312000a00e88007400370052
:101c2800504a80000000e00008003d00504a800053
:101c380080007800a0aa2a00808f500003003e0090
:101c480040302000a00e880069003700504a80000c
:101c580080007800a0aa2a00808f50000800360073
:101c6800504a80008000780040552d00808f500039
:101c780003003e0040002300a00e88005c003700ef
:101c8800504a80008000780040552d00808f500019
:101c98005600360010002300a00e880054003700bc
:101ca80044c9bf000004e00026003a0032020700e1
:101cb800e30f500014003200e30f500005003c0011
:101cc800e10f50000a003200e20f50000b00320012
:101cd8001a003700e50f500011003200e50f5000e0
:101ce8000c003500e60f50001000320013003700da
:101cf80000212000a00e88003d0037001080200041
:101d0800a00e88003a00370000812000a00e88004d
:101d18003700370040002200a00e8800340037004a
:101d280040202000a00e880031003700100022005b
:101d3800a00e8800000000002d003700d421ef001d
:101d48002b00370044c9bf00e14f500028003a007b
:101d580009020700e30f500016003200e30f50009d
:101d680005003c00e10f500018003200e20f50005f
:101d78001300320018003700e50f5000070032004a
:101d8800e50f500008003500e60f500012003a0039
:101d980000212000a00e88001500370010802000c8
:101da800a00e88001200370000812000a00e8800d5
:101db8000f00370040002200a00e88000c003700fa
:101dc80040202000a00e88000900370010002200e3
:101dd800a00e880006003700d421ef0000000000a4
:101de8000300370000000000010037000000000079
:101df8000080fa00000006000000fa000080fa00e7
:101e0800000006000200fa00881f7800000f780022
:101e18009e0078002143880020438000904078008d
:101e280060c7b30080cf5000050032002043800017
:101e38009040780020c7b30080cf500004003a00db
:101e48002043800010407800e40207002e0037008d
:101e5800204380009040780020c6b30080cf500017
:101e680005003200204380009040780030c7b3005e
:101e780080cf500004003a002043800010407800d2
:101e8800eb02070020003700204380001040780054
:101e98000000fb000003b100cf80de0077fa0700e6
:101ea800304388004143880030438000414380002c
:101eb80018c0b3006011b80053fa07000000e00032
:101ec80001003d000044eb000804e0000e00320071
:101ed800304380004143800018c0b3000200200056
:101ee8000311240046fa07000000e0000100340056
:101ef8000044eb000804e000030032003043800097
:101f080041438000c30207004f0478000080fa00b4
:101f1800000006000400fa001f020700000f780006
:101f280012002000018020001e00780088000700b1
:101f3800800078000e80e800010878000e80e80034
:101f4800900078000080200000804000a1c0b3000d
:101f5800014878000e80e800100078008000e80052
:101f68000e80e800010878000e80e80090007800f4
:101f780000802000008040008040eb00014878008d
:101f880000802000850207000080fa00000006009b
:101f98003600fa007f0107001200200001802000af
:101fa8006b000700504388005043800001802000e8
:101fb80081004000a2c0b300824878000000e80019
:101fc80050438800f4010700e40047001200200095
:101fd8005f000700800078000e80e80001087800a4
:101fe8000000eb00000f78000a0037005043800023
:101ff800e40047009e8040001141780001802000e5
:1020080081004000824878000000e80050438800c2
:102018001e0fe8000e80e800100078009e0078008f
:10202800808f5000f1ff3500504380000180200070
:1020380081004000a2c0b300824878000000e80098
:1020480050438800504380000180200081004000f8
:10205800d2c2b300824878000000e80050438800ec
:10206800504380000180200081004000a2c0b300de
:10207800824878000000e8005043880051438000ff
:1020880000802000008040008040eb00014878007c
:1020980000802000410207000080fa0000000600ce
:1020a8000000fa00570107000001eb000180200042
:1020b800270007005043880050438000018020001b
:1020c80081004000a2c0b300824878000000e80008
:1020d8005043880051438000008020000080400069
:1020e8008040eb0001487800008020002b020700a8
:1020f8000080fa00000006000000fa00aa010700ac
:102108000001eb0001802000110007005043880007
:10211800504380000180200081004000a2c0b3002d
:10212800824878000000e80050438800514380004e
:1021380000802000008040008040eb0001487800cb
:1021480000802000150207000080fa000000060049
:102158001000fa00e8014700800978006a0047008b
:10216800010878006c004700020878000000eb00c6
:10217800000f7800017122000e80e8000108780045
:102188008000eb0064004700010878006c004700fd
:10219800100078000000e0001000320068004700de
:1021a800100078000000e0000c003d009e00780060
:1021b8006a0047001000780001004000d1c2b30057
:1021c8000148780068004700100078008000ea00a5
:1021d80068004700010878001e0fe8006600470005
:1021e800e800470011087800370037000e80e80043
:1021f8009000780066004700100078000101780020
:10220800110009000280d8000000e00008003a0030
:1022180064004700100078000000e00004003a0065
:102228000e80e80010007800e10f50001d003a0011
:102238009e0078006a004700100078000100400006
:10224800700798008e80e80011017800e6004700ca
:1022580091007800110009008280d8008000fd00fc
:10226800814078000143b0007e0190000149780068
:102278000e80e800900078006600470010007800a3
:1022880001017800110009000280d80066004700ab
:102298000108780011002000640047000108780058
:1022a8001e0fe8000e80e800100178007066260016
:1022b8000090b900c288de004f90de008080500098
:1022c8000e80e800010878000e80e8001000780011
:1022d8000000e000c5ff3c009e0078006a0047004f
:1022e80010007800010040008040eb0001487800b1
:1022f8001e0078000080fa00000006000000fa00c6
:10230800311680008003200001007000301688001c
:1023180041158000800320000100700040158800ee
:10232800000e200000068800d1048000000027006d
:1023380001007000d004880085e0a9001061a800a1
:102348000080eb00600888000080eb0070088800bf
:10235800b1048000f0ff28008080600000002600a3
:1023680001007000b004880084e0a9008ce0a80097
:10237800d628ef00d828ef00e028ef001000200052
:10238800104788000029ef000080eb008080eb00f8
:10239800504888006148880050552d00b048880092
:1023a80000002800c0488800b0aa2a00d048880049
:1023b800b0aa2200e04888001e29ef0050552500e9
:1023c800004988008de0a80011e1a8000080fa000b
:1023d800000006000000fa00881f7800300880001e
:1023e8008000eb0070488800814888004008800021
:1023f8008000eb0090488800a14888009048800041
:10240800a1488000c001dd00020020007048800063
:10241800814880000200400083804800704888009e
:10242800814888007248800083488000f0c72000f7
:1024380001002000800f5100818f59002f003e00bd
:10244800f04680000000e00014003a007048800068
:1024580081488000b2aa22000289b90002017800ee
:102468006002b9008401780003014100b3aa220088
:102478000300b80001014100820078005248800042
:102488006348800015f9070080007800c046800086
:1024980000804000c046880034003700f0468000c5
:1024a800e10f500031003a00c04680000004780077
:1024b8007048800081488000b2aa22000289b900d1
:1024c800020178006002b90084017800030141002c
:1024d800b3aa22000300b80001014100820078007d
:1024e8005248800063488000fcf80700000078002c
:1024f80000005400c04688001c003700f0468000e9
:102508000000e0000b003a0050488000614880005d
:102518000001be000098250051212000eff80700b7
:1025280080007800c046800000804000c0468800d7
:102538000e003700f0468000e10f50000b003a0013
:10254800c046800000047800504880006148800040
:102558000001be000098250051212000dff8070087
:102568000000780000005400c04688004f0478003e
:102578000080fa00000006000000fa004116800002
:1025880080032000008060004300de000080fa0025
:10259800000006000000fa005048800061488000f2
:1025a800821620000289b900020178006002b90091
:1025b8008401780003014100831620000300b8005d
:1025c80001014100820078000001be0000002500e2
:1025d80091ba2a00c1f8070000007800b0468800c8
:1025e800f0468000e10f500003003a00b04680003a
:1025f8000000ea00b0468800b04680000080fa007b
:10260800000006000000fa00c04680000080fa00c2
:10261800000006000000fa00004780000080fa0071
:10262800000006000000fa00f04680000080fa0072
:10263800000006000800fa0064034700008bbe0093
:102648001049800021498000640347001603be003a
:10265800001f430001974b00640047001000be00b4
:102668003e034000ae8348001e00be004c09dd005a
:102678004402de0004027100c48ade000400530034
:1026880085805b0010498800214988001e00be0033
:102698004b0add004501de0002017200c589de003b
:1026a8000200be000080fa00000006000000fa00e8
:1026b800e2fa210061002000609320006f0007000b
:1026c800226c200041002000c09320006b0007000e
:1026d8003116800040042000010070003016880088
:1026e80041158000b0fb2f00008060004015880075
:1026f8003115800000ff2f00008060006000b300eb
:1027080030158800a6a2a9002115800000f021003c
:10271800010070002015880021158000f0032000ba
:102728000100700020158800a222a8001115800061
:1027380030fc2f0000806000c001b3001015880035
:1027480011158000f0cf2f00008060000090a000dd
:1027580010158800a062a900a042a80001158000f9
:10276800000e20000100700000158800c1048000e0
:10277800f0ff280080806000000025000100700044
:10278800c00488008560a9008d60a800a1e2a800a7
:102798000080fa00000006000000fa0030498000be
:1027a8000080fa00000006000000fa00504980008e
:1027b8000080fa00000006000800fa0064014700e3
:1027c80000097800660047000108780066004700a5
:1027d800100078006101b90064004700100078001b
:1027e8001000be00001f4100019749006600470025
:1027f80010007800cf80de003e014000ae81480026
:10280800640047001000780064004000100278005f
:102818001e00be00840278008502e9000300330030
:102828008180d1000080d300fbff370000005100f9
:102838008180590064014700120178000089be00b8
:102848006400470010007800640040001000780021
:102858000001e8001e00be00820178008301e90043
:10286800030033008180d1000080d300fbff3700d4
:10287800000078000080fa00000006000600fa0058
:10288800000f78000e80e800010878006400470017
:10289800020878001e007800640040008e80e8007e
:1028a800110878006400470010007800cf80de002f
:1028b8000e81e800120178000201e8000002be0063
:1028c800020378000603e900030033000402420013
:1028d80085824a00fbff37000401be006400470000
:1028e80010007800cf80de00000051008180590080
:1028f8001e0178000089be000080fa000000060072
:102908000000fa00b110800090ff2f0000806000e6
:10291800b01088001602a800104b8000f010880044
:1029280017e2a8001942a80001058000f0f82f005e
:10293800808060000005200001007000000588000c
:102948000105800080ff2f00008060005000b30068
:10295800000588008720a9008700a9008f20a8000b
:102968008f00a800c1108000f0f32f0000806000e5
:102978000060a000c0108800714380000040eb0098
:102988008048780060c7b30072e8b7007368ef004a
:102998007028ef000080fa00000006000200fa002c
:1029a800000f7800804380000000e00009003a0032
:1029b8009e007800714388006c28ef00100020000a
:1029c8008043880070438000104078000000fb00be
:1029d800d01088000080fa00000006000200fa000b
:1029e800004f780060c9bf009e40780080cf50003b
:1029f800060032006000b800e04a8800f14a88000a
:102a08001e41780001962000824878000080fa0074
:102a1800000006000400fa00008fbe001e01be0080
:102a2800e24a8800f34a88000080fa0000000600a5
:102a38000200fa00004f780061c9bf009e4078008c
:102a480080cf5000070032000000200001f823006a
:102a5800e04a8800f14a88001e417800119620005b
:102a6800824878000080fa00000006000000fa00a2
:102a780060c9bf000080fa00000006000000fa00ec
:102a8800e04a8000f14a80000080fa000000060059
:102a98000000fa0061c9bf000080fa0000000600cb
:020000040000fa
:102aa8006209000002000000020000006700000048
:102ab8006c0800006a00000000000000d608000052
:102ac8005000000000000000440900000c00000055
:102ad800000000006409000002000000020000007d
:102ae800010000005c090000060000000200000070
:102af800000080003f767300000800006c000000b2
:102b080000000000500900000c0000000000000058
:102b1800260900001e0000000000000066090000f1
:0c2b28000200000000000000000000009f
:020000040000fa
:102b34000000fa0000c8200010088800a1048000ea
:102b44000000270001007000a00488008460a90030
:102b54008c60a8005029ef005229ef005429ef009f
:102b640010002000b04a880020032000c04a8800da
:102b7400401f2000d04a880005e1a8000080fa0028
:102b8400000006000000fa0042fb07005dff07009a
:102b94009afc0700c6fe0700d9fd0700e4ff070002
:042ba400ffff3700f8
:020000040000fa
:0200000401f009
:04000000f6bf000047
:020000040000fa
:0200000401f009
:04000400c07f0000b9
:020000040000fa
:0200000401f009
:040008007cff000079
:020000040000fa
:0200000401f009
:04001400ffffff00eb
:020000040000fa
:0200000401f009
:04001800ffff0000e6
:00000001FF
