:020000040000fa
:080000000001040000000000f3
:020000040000fa
:0400080000040000f0
:020000040000fa
:04000c0000040000ec
:020000040000fa
:0400100000040000e8
:020000040000fa
:0400140000040000e4
:020000040000fa
:0400180000040000e0
:020000040000fa
:04001c0000040000dc
:020000040000fa
:0400200000040000d8
:020000040000fa
:0400240000040000d4
:020000040000fa
:0400280000040000d0
:020000040000fa
:04002c0000040000cc
:020000040000fa
:0400300000040000c8
:020000040000fa
:0400340022030000a3
:020000040000fa
:0400380000040000c0
:020000040000fa
:04003c0000040000bc
:020000040000fa
:0400400000040000b8
:020000040000fa
:0400440006030000af
:020000040000fa
:0400480000040000b0
:020000040000fa
:04004c0000040000ac
:020000040000fa
:0400500000040000a8
:020000040000fa
:04005400760300002f
:020000040000fa
:0400580000040000a0
:020000040000fa
:04005c00000400009c
:020000040000fa
:040060000004000098
:020000040000fa
:040064002402000072
:020000040000fa
:040068000004000090
:020000040000fa
:04006c00000400008c
:020000040000fa
:040070000004000088
:020000040000fa
:040074000004000084
:020000040000fa
:040078000004000080
:020000040000fa
:04007c00000400007c
:020000040000fa
:040080000004000078
:020000040000fa
:040084000004000074
:020000040000fa
:04008800fc01000077
:020000040000fa
:04008c00c8010000a7
:020000040000fa
:040090000004000068
:020000040000fa
:040094000004000064
:020000040000fa
:040098000004000060
:020000040000fa
:04009c00000400005c
:020000040000fa
:0400a0000004000058
:020000040000fa
:0400a4000004000054
:020000040000fa
:0400a8000004000050
:020000040000fa
:0400ac00000400004c
:020000040000fa
:0400b0000004000048
:020000040000fa
:0400b4000004000044
:020000040000fa
:0400b8000004000040
:020000040000fa
:0400bc00000400003c
:020000040000fa
:0400c0000004000038
:020000040000fa
:0400c4000004000034
:020000040000fa
:0400c8000004000030
:020000040000fa
:0400cc00000400002c
:020000040000fa
:0400d0000004000028
:020000040000fa
:0400d4000004000024
:020000040000fa
:0400d8000004000020
:020000040000fa
:0401080000040000ef
:020000040000fa
:04010c0000040000eb
:020000040000fa
:0401100000040000e7
:020000040000fa
:0401140000040000e3
:020000040000fa
:0401180000040000df
:020000040000fa
:04011c0000040000db
:020000040000fa
:0401200000040000d7
:020000040000fa
:0401240000040000d3
:020000040000fa
:0401280000040000cf
:020000040000fa
:04012c0000040000cb
:020000040000fa
:0401300000040000c7
:020000040000fa
:0401340022030000a2
:020000040000fa
:0401380000040000bf
:020000040000fa
:04013c0000040000bb
:020000040000fa
:0401400000040000b7
:020000040000fa
:0401440006030000ae
:020000040000fa
:0401480000040000af
:020000040000fa
:04014c0000040000ab
:020000040000fa
:0401500000040000a7
:020000040000fa
:04015400760300002e
:020000040000fa
:04015800000400009f
:020000040000fa
:04015c00000400009b
:020000040000fa
:040160000004000097
:020000040000fa
:040164002402000071
:020000040000fa
:04016800000400008f
:020000040000fa
:04016c00000400008b
:020000040000fa
:040170000004000087
:020000040000fa
:040174000004000083
:020000040000fa
:04017800000400007f
:020000040000fa
:04017c00000400007b
:020000040000fa
:040180000004000077
:020000040000fa
:040184000004000073
:020000040000fa
:04018800fc01000076
:020000040000fa
:04018c00c8010000a6
:020000040000fa
:040190000004000067
:020000040000fa
:040194000004000063
:020000040000fa
:04019800000400005f
:020000040000fa
:04019c00000400005b
:020000040000fa
:0401a0000004000057
:020000040000fa
:0401a4000004000053
:020000040000fa
:0401a800000400004f
:020000040000fa
:0401ac00000400004b
:020000040000fa
:0401b0000004000047
:020000040000fa
:0401b4000004000043
:020000040000fa
:0401b800000400003f
:020000040000fa
:0401bc00000400003b
:020000040000fa
:0401c0000004000037
:020000040000fa
:0401c4000004000033
:020000040000fa
:0401c800000400002f
:020000040000fa
:0401cc00000400002b
:020000040000fa
:0401d0000004000027
:020000040000fa
:0401d4000004000023
:020000040000fa
:0401d800000400001f
:020000040000fa
:10020000ef9620000eff20000e0188000000000085
:10021000000020000000e000020032000001200089
:100220002002880014000700770107000000e000aa
:1002300003003a0080f02000010020000200370097
:100240000000200001002000810f7000010032003a
:1002500014000700000020000000e000020032004f
:100260000000020000000000780f02000000000003
:100270000040da000000fe004440a900e001200038
:100280000000e0000300320000002000a001880010
:100290004440a800000006008a1f78008b1f7800e9
:1002a0000000060091018800800478000000eb0047
:1002b0001a003700e284440032a0b4009905ba0065
:1002c000e284440032a0b4009906ba00e2844400fb
:1002d00032a0b4000006eb00476fde00fd07b2005d
:1002e000636ce10003003a00ebff07000000eb0045
:1002f0000a003700606ce10004003a00005deb008a
:100300008b05e900fdff3e00040037006168e10055
:10031000010032000086eb000b00070019c7ba008d
:100320001905ba000e04e00003003a000a00e000dc
:10033000e0ff3a0000000600fe07b2009e018800c0
:100340008a047800f5ff3700395dba008b05e900b3
:100350000c003200295dba008b05e900080032006c
:100360000c00e00003003a00e284440032a0b40034
:10037000f5ff370019ddba008b05e900faff3a00f6
:100380008904e800e184440032a0b40000000600c3
:10039000809fbe000000fa008720a90090438000e3
:1003a000e10f500011003a00704380000000e800a7
:1003b00070438800814380007043800000804000cb
:1003c000104078000004e000070032008143800004
:1003d0007043800000804000104078000000fb0067
:1003e000d0108800010037007228ef000080fa006a
:1003f0004f00be00004006003600f800809fbe009f
:10040000829fbe00849fbe00869fbe000000fa004f
:100410008700a900e01080000040780074e8b70071
:100420007568ef0040872000be0107000080fa00d9
:100430004f03be004f02be004f01be004f00be0082
:100440003600f900004006003600f800809fbe002c
:10045000829fbe00849fbe00869fbe000000fa00ff
:1004600085e0a900204780000000e0001100320074
:100470000821ef000621ef0090042000700888009a
:1004800000e0230060088800ec0407000000e90099
:100490008000400080912000008040001000780023
:1004a000d0468800d0468000e0468800e428ef006f
:1004b0004f003700300880008000eb003047880094
:1004c00041478800400880008000eb0020488800f9
:1004d000314888002048800031488000c001dd009c
:1004e00002002000304780004147800002004000a9
:1004f0008380480030478800414788000821ef008a
:100500000621ef003047800041478000fa040700d1
:10051000604888007148880010488000e50f50004e
:1005200004003c00104880000000e80010488800eb
:10053000020037001000200010478800bf040700a9
:100540000000e90080004000809120000080400011
:1005500010007800d0468800d1468000e046800038
:1005600000805000f0468800f14680001000200016
:100570000100e000010034000000eb0000478800ab
:10058000d0468000e04688006048800071488000c6
:1005900000004000818048004048880051488800a1
:1005a000424880005348800000a0260081012000be
:1005b000800f5100818f59000400360000a02600f2
:1005c0008101200040488800514888004048800050
:1005d000514880004008de00000078007008880064
:1005e0004048800051488000000078006008880082
:1005f0000080fa004f03be004f02be004f01be0054
:100600004f00be003600f90000400600809fbe008b
:100610000000fa0084e0a9000080eb008080eb007d
:100620006048880071488800e228ef001000200030
:10063000204788000229ef000080fa004f00be002a
:10064000004006003600f800809fbe00829fbe007a
:10065000849fbe00869fbe000000fa008460a9004f
:10066000a04a80000000e800a04a8800b04a80004c
:100670000000e800b04a8800c04a80000000e8009e
:10068000c04a8800a14a8000d04a8000808f500074
:1006900003003a005429ef00ff030700d0020700cf
:1006a000b14a8000e04a8000808f500002003a008a
:1006b0005629ef0047050700c14a8000f04a800034
:1006c000808f500002003a005829ef008601070091
:1006d0000080fa004f03be004f02be004f01be0073
:1006e0004f00be003600f900004006003600f8005a
:1006f000809fbe00829fbe00849fbe00869fbe007a
:100700000200fa008560a900111580000008200091
:10071000008060000000e00003003200002820009c
:10072000a04988000200370000292000a049880065
:100730002a29ef002e29ef003229ef000000eb00fc
:10074000000f78001e003700a0498000900078005c
:100750000080e800a0498800e0932000cb04070057
:10076000714980000100400070498800a049800064
:100770001001780091498000810041009149880072
:100780000080e800a0498800a04980000080e800bf
:10079000a0498800a049800090007800c308dd00cf
:1007a0000080e800a049880080932000b70407007b
:1007b0005149800001004000504988001e0fe800a8
:1007c0001e007800e10f5000dfff34005149800027
:1007d00020052e00008040004049880070498000bc
:1007e000604988000080fa004f03be004f02be003f
:1007f0004f01be004f00be003600f9000040060069
:100800000040da000000fe00000005001400200097
:1008100015003700f4ff2f00130037004f89de006a
:10082000820178002b0037006022b8000602200009
:100830000000d0008180d2000482d2008582d200e4
:100840000000a0000202520083825a00030031001f
:100850000202420083824a000000a1000603e90070
:10086000f3ff3a0000000600889fbe008a9fbe008a
:10087000841f78007c0007004f00780011003300cf
:10088000f0ff2f00838f6c0006003b00040565001d
:100890000a00a7000800370009f0a6001000200099
:1008a00008003700820f5400838f5c00030039007a
:1008b0001000200001003e000000200009f0a70009
:1008c0000000ea004f05be004f04be000000e0003b
:1008d00000000600881f7800030478000300e00091
:1008e00007003d0060001000e08018006001190062
:1008f000e081190002003b0001f02d0003003700e9
:100900000400070008f0a70001f0a0004f047800e1
:1009100000000600889fbe008a9fbe000082700013
:100920000402710004827100260032000004be003f
:100930000200be006011b8006b0920009502200083
:100940000182cf000a0039000541b1000082cf00ca
:10095000070039000541b1000982cf0004003900c9
:100960000541b1000882cf00010039000541b10006
:1009700005425200120032000a003b0082817100e1
:10098000610164008100d1000080d3008984d3001c
:100990000884d3008b05e8000442e800f7ff3a0022
:1009a000070037000804440089844c000000480018
:1009b000818048008b05e9000442e900f9ff3a0014
:1009c000030007004f05be004f04be0000000600f4
:1009d00081002000618055000b003d000b002000cd
:1009e00061fe2f000100e1001d00340082817100d2
:1009f000610164008904d1000884d3000000e8008c
:100a0000faff3a00710020006100640003007000ea
:100a1000020060000900320061044400e0844c00e0
:100a20000988a500050032008b05e8006808e10090
:100a300002003a008904d1000884d300f20f20009c
:100a40000258e10005003d00c75ddd00f907b20076
:100a50008980750008007800000006000bf8270068
:100a60008b007800000005000004be0006000700af
:100a70000003be000405be000200be000200070025
:100a8000844f750000000600c70ade00f107b200bf
:100a9000f50fb20008003200e1cf42000200320040
:100aa0000170a00024000500810f700001003200d9
:100ab0000408050044000500810f700002003a00a0
:100ac000140005008502e9000000400081c04800d4
:0c0ad000fcff3b000170a00024000500aa
:020000040000fa
:100adc004c4c0000206e0000207300006f6c000076
:100aec006c3a0000200000000a6e00002069000033
:100afc00737400003a200000000a00004920000036
:0c0b0c0069730000743a00002000000033
:020000040000fa
:100b18000000fa000080fa00000006000200fa0057
:100b2800881f7800000f78009e0078002143880015
:100b3800204380009040780060c7b30080cf500009
:100b480005003200204380009040780020c7b300a1
:100b580080cf500004003a00204380001040780005
:100b6800360407003c00370020438000904078009e
:100b780020c6b30080cf500005003200204380001b
:100b88009040780030c7b30080cf500004003a008e
:100b980020438000104078003d0407002e003700f5
:100ba8002043800090407800d0c2b30080cf50002e
:100bb800050032002043800090407800b0c2b300a6
:100bc80080cf500004003a00204380001040780095
:100bd80036040700200037002043800010407800ca
:100be8000000fb000003b100cf80de0009ff070012
:100bf80030438800414388003043800041438000ef
:100c080018c0b3006011b80000ff07000000e00042
:100c180001003d000044eb000804e0000e00320033
:100c2800304380004143800018c0b3000200200018
:100c380003112400f3fe07000000e0000100340067
:100c48000044eb000804e000030032003043800059
:100c580041438000070407004f0478000080fa0031
:100c6800000006000400fa007a030700000f78006d
:100c780012002000018020001e007800ae0007004e
:100c8800800078000e80e800010878000e80e800f7
:100c9800900078000080200000804000a1c0b300d0
:100ca800014878000e80e800100078008000e80015
:100cb8000e80e800010878000e80e80090007800b7
:100cc80000802000008040008040eb000148780050
:100cd800008020003c0407000080fa0000000600a5
:100ce8003400fa0005040700111720000180b9003c
:100cf80000017800309022000090b900c888de001a
:100d08004f90de000080500060438800b200200051
:100d1800e156280000802000f200070050438800b8
:100d2800634380000e80e8001200200080007800f5
:100d38000300780080000700000f7800504380000f
:100d48008000780000802000008040008e80e8004d
:100d58001e017800e30007005143800001004000b5
:100d680050438800504380008000780000802000b5
:100d78000080400082002000a1572800d900070009
:100d8800514380000100400050438800b002070032
:100d98008e80e8001200200067000700000f78002e
:100da80050438000800078000080200000804000d0
:100db8008e80e8001e017800ca00070051438000b9
:100dc80001004000504388005043800080007800b4
:100dd8000080200000804000820020003158280058
:100de800c0000700514380000100400050438800c4
:100df800180307008e80e800120020004e0007004c
:100e0800000f7800504380008000780000802000a8
:100e1800008040008e80e8001e017800b1000700c5
:100e28005143800001004000504388005043800037
:100e38000180200081004000a2c0b30082487800f1
:100e48000000e800504388005043800001802000e3
:100e580081004000a2c0b300824878000000e8008a
:100e680050438800514380000080200000804000eb
:100e78008040eb000148780000802000d203070082
:100e88000080fa00000006000000fa008c0207004b
:100e98000001eb0001802000270007005043880074
:100ea800504380000180200081004000a2c0b300b0
:100eb800824878000000e8005043880051438000d1
:100ec80000802000008040008040eb00014878004e
:100ed80000802000bc0307000080fa000000060024
:100ee8000000fa00df0207000001eb00018020008b
:100ef8001100070050438800504380000180200003
:100f080081004000a2c0b300824878000000e800d9
:100f1800504388005143800000802000008040003a
:100f28008040eb000148780000802000a6030700fd
:100f38000080fa00000006001000fa00e8014700ef
:100f4800800978006a004700010878006c004700b3
:100f5800020878000000eb00000f78000171220001
:100f68000e80e800010878008000eb00640047006c
:100f7800010878006c004700100078000000e000cd
:100f88001000320068004700100078000000e00000
:100f98000c003d009e0078006a00470010007800b1
:100fa80001004000d1c2b300014878006800470042
:100fb800100078008000ea00680047000108780007
:100fc8001e0fe80066004700e80047001108780097
:100fd800370037000e80e800900078006600470070
:100fe8001000780001017800110009000280d80083
:100ff8000000e00008003a00640047001000780094
:101008000000e00004003a000e80e80010007800bc
:10101800e10f50001d003a009e0078006a0047006a
:101028001000780001004000700798008e80e800ea
:1010380011017800e60047009100780011000900ce
:101048008280d8008000fd00814078000143b00014
:101058007e019000014978000e80e8009000780039
:1010680066004700100078000101780011000900af
:101078000280d800660047000108780011002000af
:1010880064004700010878001e0fe8000e80e800a1
:1010980010017800706626000090b900c288de0052
:1010a8004f90de00808050000e80e8000108780034
:1010b8000e80e800100078000000e000c5ff3c004a
:1010c8009e0078006a004700100078000100400088
:1010d8008040eb00014878001e0078000080fa008c
:1010e800000006000800fa008e81e80080097800f8
:1010f800640047000108780066004700020878008d
:101108000000eb00000f78000b0037009e0078000d
:101118000e80e80010007800010040001e017800f1
:10112800e4004700910078008280400091407800f8
:10113800014878001e0fe80066004700100078009c
:101148009e007800808f5000f0ff35009e007800e8
:101158000e80e80010007800010040008040eb009d
:10116800014878001e0078000080fa0000000600a0
:101178000000fa0000ec2f00c016880000102000c4
:10118800d0168800f00f2000400e8800c021ef0024
:10119800610e8000f0f32f0000806000600e880070
:1011a800610e800000fc2f0000806000a000b300ea
:1011b800600e8800f0312000200e8800d621ef0054
:1011c800d821ef00da21ef00c221ef00c1e1a80029
:1011d8000080fa00000006000000fa00cb020700b9
:1011e80047e9b700c5020700404a8800bc0107006c
:1011f8000040780046e9b700c8020700604b880045
:10120800af010700704a8800b10107000000e00044
:101218009100320046c9bf000004e00005003a0012
:10122800714a800090e3200000804000704a8800e6
:101238000700370046c9bf00e14f500004003a00dc
:10124800714a800020c7210000804000704a880051
:10125800604b80000000e00040003200704a8000cf
:101268000000e00007003500714a8000a0aa2200b3
:10127800808f500003003c0040302000a00e880002
:1012880035003700714a8000a0aa2200808f5000e4
:1012980007003400714a800040552500808f5000b7
:1012a80003003c0040002300a00e88002a003700fd
:1012b800714a800040552500808f50000600340098
:1012c800704a80000000e000030035001000230091
:1012d800a00e880020003700704a80000000e0005f
:1012e80008003d00704a800080007800a0aa2a000b
:1012f800808f500003003e0010c02000a00e880020
:1013080015003700704a800080007800a0aa2a00e3
:10131800808f500008003600704a800080007800f6
:1013280040552d00808f500003003e0000c1200072
:10133800a00e880008003700704a800080007800fe
:1013480040552d00808f500090003600003120005d
:10135800a00e8800900037008f003700704a800088
:101368000000e00007003500714a8000a0aa2200b2
:10137800808f500003003c0010c02000a00e8800a1
:1013880085003700714a8000a0aa2200808f500093
:1013980007003400714a800040552500808f5000b6
:1013a80003003c0000c12000a00e88007a0037002e
:1013b800714a800040552500808f50000600340097
:1013c800704a80000000e000030035000031200072
:1013d800a00e880070003700704a80000000e0000e
:1013e80008003d00704a800080007800a0aa2a000a
:1013f800808f500003003e0040302000a00e88007f
:1014080065003700704a800080007800a0aa2a0092
:10141800808f500008003600704a800080007800f5
:1014280040552d00808f500003003e0040002300ef
:10143800a00e880058003700704a800080007800ad
:1014480040552d00808f50005200360010002300b8
:10145800a00e880050003700604b80000000e000bc
:1014680026003200f3000700e30f5000140032009a
:10147800e30f500005003c00e10f50000a00320065
:10148800e20f50000b0032001a003700e50f500041
:1014980011003200e50f50000c003500e60f500037
:1014a800100032001300370000312000a00e880021
:1014b8003900370010c02000a00e88003600370021
:1014c80000c12000a00e8800330037004000230030
:1014d800a00e88003000370040302000a00e8800a1
:1014e8002d00370010002300a00e88000000000027
:1014f80029003700d421ef0027003700cd0007006e
:10150800e30f500016003200e30f500005003c00c6
:10151800e10f500018003200e20f500013003200b3
:1015280018003700e50f500007003200e50f5000a3
:1015380008003500e60f500012003a000031200084
:10154800a00e88001400370010c02000a00e8800ec
:101558001100370000c12000a00e88000e003700df
:1015680040002300a00e88000b0037004030200008
:10157800a00e88000800370010002300a00e880085
:1015880005003700d421ef000300370000000000f9
:101598000100370000000000404a8000b00e8800bb
:1015a800404a8000c00e8800404a8000d00e880063
:1015b8000080fa00000006000000fa0031168000e2
:1015c800800320000100700030168800411580005b
:1015d800800320000100700040158800000e2000e4
:1015e80000068800d1048000000027000100700078
:1015f800d004880085e0a9001061a8000080eb00f5
:10160800600888000080eb0070088800b104800042
:10161800f0ff2800808060000000260001007000b4
:10162800b004880084e0a9008ce0a800d828ef0066
:10163800da28ef00e228ef00100020002047880099
:101648000229ef000080eb008080eb0060488800f2
:101658007148880050552d00c048880000002800b7
:10166800d0488800b0aa2a00e0488800b0aa220022
:10167800f04888002029ef005055250010498800bf
:101688008de0a80011e1a8000080fa000000060023
:101698000000fa00881f7800300880008000eb0006
:1016a8008048880091488800400880008000eb004e
:1016b800a0488800b1488800a0488000b148800050
:1016c800c001dd00020020008048800091488000b1
:1016d80002004000838048008048880091488800c4
:1016e8008248800093488000f0c720000100200055
:1016f800800f5100818f59002f003e000047800065
:101708000000e00014003a00804880009148800002
:10171800b2aa22000289b900020178006002b90069
:101728008401780003014100b3aa22000300b80035
:1017380001014100820078006248800073488000ff
:1017480037fc070080007800d04680000080400009
:10175800d04688003400370000478000e10f500071
:1017680031003a00d04680000004780080488000ac
:1017780091488000b2aa22000289b90002017800cb
:101788006002b9008401780003014100b3aa220075
:101798000300b8000101410082007800624880001f
:1017a800734880001efc0700000078000000540009
:1017b800d04688001c003700004780000000e00089
:1017c8000b003a0060488000714880000001be00ac
:1017d800009825005121200011fc070080007800a6
:1017e800d046800000804000d04688000e003700b8
:1017f80000478000e10f50000b003a00d0468000ff
:101808000004780060488000714880000001be0034
:10181800009825005121200001fc070000007800f5
:1018280000005400d04688004f0478000080fa0079
:10183800000006000000fa00411680008003200026
:10184800008060004300de000080fa00000006000f
:101858000000fa006048800071488000821620006d
:101868000289b900020178006002b9008401780099
:1018780003014100831620000300b8000101410064
:10188800820078000001be000000250091ba2a00fd
:10189800e3fb070000007800c0468800004780008e
:1018a800e10f500003003a00c04680000000ea0043
:1018b800c0468800c04680000080fa00000006008c
:1018c8000000fa00d04680000080fa000000060000
:1018d8000000fa00104780000080fa0000000600af
:1018e8000000fa00004780000080fa0000000600af
:1018f8000800fa0064034700008bbe0020498000fe
:1019080031498000640347001603be00001f4300ee
:1019180001974b00640047001000be003e034000e2
:10192800ae8348001e00be004c09dd004402de0004
:1019380004027100c48ade000400530085805b0045
:1019480020498800314988001e00be004b0add008e
:101958004501de0002017200c589de000200be00fa
:101968000080fa00000006000000fa00e2fa2100f8
:10197800610020008093200073000700226c200083
:1019880041002000e09320006f000700311680001e
:1019980040042000010070003016880041158000c6
:1019a800b0fb2f00008060004015880031158000d2
:1019b80000ff2f00008060006000b3003015880031
:1019c800a6a2a9002115800000f0210001007000e6
:1019d8002015880021158000f00320000100700008
:1019e80020158800a222a8001115800030fc2f00c5
:1019f80000806000c001b300101588001115800038
:101a0800f0cf2f00008060000090a0001015880023
:101a1800a062a900a042a80001158000000e2000c5
:101a28000100700000158800c1048000f0ff280044
:101a3800808060000000250001007000c00488005c
:101a48008560a9008d60a800a1e2a8000080fa00c6
:101a5800000006000000fa00404980000080fa00fb
:101a6800000006000000fa00604980000080fa00cb
:101a7800000006000000fa00804980000080fa009b
:101a8800000006000800fa00640147000009780019
:101a980066004700010878006600470010007800db
:101aa8006101b90064004700100078001000be0012
:101ab800001f4100019749006600470010007800a8
:101ac800cf80de003e014000ae8148006400470040
:101ad8001000780064004000100278001e00be006c
:101ae800840278008502e900030033008180d10078
:101af8000080d300fbff37000000510081805900af
:101b080064014700120178000089be0064004700a4
:101b18001000780064004000100078000001e80020
:101b28001e00be00820178008301e9000300330033
:101b38008180d1000080d300fbff370000007800cf
:101b48000080fa00000006000600fa00000f780086
:101b58000e80e80001087800640047000208780059
:101b68001e007800640040008e80e80011087800ac
:101b78006400470010007800cf80de000e81e80086
:101b8800120178000201e8000002be00020378009a
:101b98000603e900030033000402420085824a007c
:101ba800fbff37000401be00640047001000780006
:101bb800cf80de0000005100818059001e017800ae
:101bc8000089be000080fa00000006000200fa004a
:101bd800a4ff0700000f78001e00780000004000f6
:101be800000f7800d06320009e007800808f50009e
:101bf80006003c0010002000404b8800e0632000f5
:101c08001e005000204b88000a003700807020001a
:101c18009e007800808f5000050034006829ef008e
:101c2800808f2f001e004000204b880001003700e5
:101c38006429ef000080fa00000006000200fa00a4
:101c4800004f780066c9bf009e40780080cf5000e2
:101c5800060032006000b800004b8800114b880075
:101c68001e41780061962000824878000080fa00c2
:101c7800000006000400fa00008fbe001e01be002e
:101c8800024b8800134b88000080fa000000060011
:101c98000200fa00004f78001e417800719620007b
:101ca800824878000080fa00000006000200fa006e
:101cb800004f7800b0c2b3009e40780080cf50003b
:101cc80003003a0010002000404b88000500370050
:101cd800d0c2b3009e40780080cf500001003a0087
:101ce8006829ef000080fa00000006000000fa00f2
:101cf80066c9bf000080fa00000006000000fa0074
:101d0800204b80000080fa00000006000000fa0066
:101d180067c9bf000080fa00000006000000fa0052
:101d2800404b80000080fa00000006000000fa0026
:101d3800b110800090ff2f0000806000b010880074
:101d48001602a800504b8000f010880017e2a80087
:101d58001942a80001058000f0f82f00808060007b
:101d680000052000010070000005880001058000c2
:101d780080ff2f00008060005000b300000588003d
:101d88008720a9008700a9008f20a8008f00a8003d
:101d9800c1108000f0f32f00008060000060a000f8
:101da800c0108800814380000040eb008048780024
:101db80060c7b30074e8b7007568ef007228ef00d9
:101dc8000080fa00000006000200fa00000f780008
:101dd800904380000000e00009003a009e0078006f
:101de800814388006e28ef0010002000904388008f
:101df80080438000104078000000fb00d01088006d
:081e08000080fa000000060052
:020000040000fa
:101e10006a090000020000000200000067000000e4
:101e20006e0800006a00000000000000d8080000f2
:101e30005000000000000000460900000e000000f5
:101e4000000000006c090000020000000200000019
:101e50000100000060090000060000000000000012
:101e60006609000004000000020000007661010025
:101e700000000000000800006e00000000000000ec
:101e8000540900000c0000000000000028090000b8
:0c1e90001e000000000000000000000028
:020000040000fa
:101e9c000000fa0000c8200010088800a10480008f
:101eac000000270001007000a00488008460a900d5
:101ebc008c60a8005429ef005629ef005829ef0038
:101ecc0010002000d04a880020032000e04a88003f
:101edc0080382100f04a880005e1a8000080fa0053
:101eec00000006000000fa00a0fc07008eff0700af
:101efc0006fb07009bfe0700aefd0700e4ff070092
:041f0c00ffff37009c
:020000040000fa
:0200000401f009
:04000000f6bf000047
:020000040000fa
:0200000401f009
:04000400c07f0000b9
:020000040000fa
:0200000401f009
:040008007cff000079
:020000040000fa
:0200000401f009
:04001400ffffff00eb
:020000040000fa
:0200000401f009
:04001800ffff0000e6
:00000001FF
